{
  "contractName": "LipToken",
  "abi": [
    {
      "inputs": [
        {
          "internalType": "string",
          "name": "_name",
          "type": "string"
        },
        {
          "internalType": "string",
          "name": "_symbol",
          "type": "string"
        }
      ],
      "stateMutability": "nonpayable",
      "type": "constructor"
    },
    {
      "anonymous": false,
      "inputs": [
        {
          "indexed": true,
          "internalType": "address",
          "name": "owner",
          "type": "address"
        },
        {
          "indexed": true,
          "internalType": "address",
          "name": "approved",
          "type": "address"
        },
        {
          "indexed": true,
          "internalType": "uint256",
          "name": "tokenId",
          "type": "uint256"
        }
      ],
      "name": "Approval",
      "type": "event"
    },
    {
      "anonymous": false,
      "inputs": [
        {
          "indexed": true,
          "internalType": "address",
          "name": "owner",
          "type": "address"
        },
        {
          "indexed": true,
          "internalType": "address",
          "name": "operator",
          "type": "address"
        },
        {
          "indexed": false,
          "internalType": "bool",
          "name": "approved",
          "type": "bool"
        }
      ],
      "name": "ApprovalForAll",
      "type": "event"
    },
    {
      "anonymous": false,
      "inputs": [
        {
          "indexed": true,
          "internalType": "address",
          "name": "owner",
          "type": "address"
        },
        {
          "indexed": false,
          "internalType": "uint256",
          "name": "id",
          "type": "uint256"
        },
        {
          "indexed": false,
          "internalType": "uint256",
          "name": "dna",
          "type": "uint256"
        }
      ],
      "name": "NewLip",
      "type": "event"
    },
    {
      "anonymous": false,
      "inputs": [
        {
          "indexed": true,
          "internalType": "address",
          "name": "previousOwner",
          "type": "address"
        },
        {
          "indexed": true,
          "internalType": "address",
          "name": "newOwner",
          "type": "address"
        }
      ],
      "name": "OwnershipTransferred",
      "type": "event"
    },
    {
      "anonymous": false,
      "inputs": [
        {
          "indexed": true,
          "internalType": "address",
          "name": "from",
          "type": "address"
        },
        {
          "indexed": true,
          "internalType": "address",
          "name": "to",
          "type": "address"
        },
        {
          "indexed": true,
          "internalType": "uint256",
          "name": "tokenId",
          "type": "uint256"
        }
      ],
      "name": "Transfer",
      "type": "event"
    },
    {
      "inputs": [
        {
          "internalType": "address",
          "name": "to",
          "type": "address"
        },
        {
          "internalType": "uint256",
          "name": "tokenId",
          "type": "uint256"
        }
      ],
      "name": "approve",
      "outputs": [],
      "stateMutability": "nonpayable",
      "type": "function"
    },
    {
      "inputs": [
        {
          "internalType": "address",
          "name": "owner",
          "type": "address"
        }
      ],
      "name": "balanceOf",
      "outputs": [
        {
          "internalType": "uint256",
          "name": "",
          "type": "uint256"
        }
      ],
      "stateMutability": "view",
      "type": "function",
      "constant": true
    },
    {
      "inputs": [
        {
          "internalType": "uint256",
          "name": "tokenId",
          "type": "uint256"
        }
      ],
      "name": "getApproved",
      "outputs": [
        {
          "internalType": "address",
          "name": "",
          "type": "address"
        }
      ],
      "stateMutability": "view",
      "type": "function",
      "constant": true
    },
    {
      "inputs": [
        {
          "internalType": "address",
          "name": "owner",
          "type": "address"
        },
        {
          "internalType": "address",
          "name": "operator",
          "type": "address"
        }
      ],
      "name": "isApprovedForAll",
      "outputs": [
        {
          "internalType": "bool",
          "name": "",
          "type": "bool"
        }
      ],
      "stateMutability": "view",
      "type": "function",
      "constant": true
    },
    {
      "inputs": [
        {
          "internalType": "uint256",
          "name": "",
          "type": "uint256"
        }
      ],
      "name": "lips",
      "outputs": [
        {
          "internalType": "string",
          "name": "name",
          "type": "string"
        },
        {
          "internalType": "uint256",
          "name": "id",
          "type": "uint256"
        },
        {
          "internalType": "uint256",
          "name": "dna",
          "type": "uint256"
        },
        {
          "internalType": "uint8",
          "name": "level",
          "type": "uint8"
        },
        {
          "internalType": "uint8",
          "name": "rarity",
          "type": "uint8"
        }
      ],
      "stateMutability": "view",
      "type": "function",
      "constant": true
    },
    {
      "inputs": [],
      "name": "name",
      "outputs": [
        {
          "internalType": "string",
          "name": "",
          "type": "string"
        }
      ],
      "stateMutability": "view",
      "type": "function",
      "constant": true
    },
    {
      "inputs": [],
      "name": "owner",
      "outputs": [
        {
          "internalType": "address",
          "name": "",
          "type": "address"
        }
      ],
      "stateMutability": "view",
      "type": "function",
      "constant": true
    },
    {
      "inputs": [
        {
          "internalType": "uint256",
          "name": "tokenId",
          "type": "uint256"
        }
      ],
      "name": "ownerOf",
      "outputs": [
        {
          "internalType": "address",
          "name": "",
          "type": "address"
        }
      ],
      "stateMutability": "view",
      "type": "function",
      "constant": true
    },
    {
      "inputs": [],
      "name": "renounceOwnership",
      "outputs": [],
      "stateMutability": "nonpayable",
      "type": "function"
    },
    {
      "inputs": [
        {
          "internalType": "address",
          "name": "from",
          "type": "address"
        },
        {
          "internalType": "address",
          "name": "to",
          "type": "address"
        },
        {
          "internalType": "uint256",
          "name": "tokenId",
          "type": "uint256"
        }
      ],
      "name": "safeTransferFrom",
      "outputs": [],
      "stateMutability": "nonpayable",
      "type": "function"
    },
    {
      "inputs": [
        {
          "internalType": "address",
          "name": "from",
          "type": "address"
        },
        {
          "internalType": "address",
          "name": "to",
          "type": "address"
        },
        {
          "internalType": "uint256",
          "name": "tokenId",
          "type": "uint256"
        },
        {
          "internalType": "bytes",
          "name": "data",
          "type": "bytes"
        }
      ],
      "name": "safeTransferFrom",
      "outputs": [],
      "stateMutability": "nonpayable",
      "type": "function"
    },
    {
      "inputs": [
        {
          "internalType": "address",
          "name": "operator",
          "type": "address"
        },
        {
          "internalType": "bool",
          "name": "approved",
          "type": "bool"
        }
      ],
      "name": "setApprovalForAll",
      "outputs": [],
      "stateMutability": "nonpayable",
      "type": "function"
    },
    {
      "inputs": [
        {
          "internalType": "bytes4",
          "name": "interfaceId",
          "type": "bytes4"
        }
      ],
      "name": "supportsInterface",
      "outputs": [
        {
          "internalType": "bool",
          "name": "",
          "type": "bool"
        }
      ],
      "stateMutability": "view",
      "type": "function",
      "constant": true
    },
    {
      "inputs": [],
      "name": "symbol",
      "outputs": [
        {
          "internalType": "string",
          "name": "",
          "type": "string"
        }
      ],
      "stateMutability": "view",
      "type": "function",
      "constant": true
    },
    {
      "inputs": [
        {
          "internalType": "uint256",
          "name": "tokenId",
          "type": "uint256"
        }
      ],
      "name": "tokenURI",
      "outputs": [
        {
          "internalType": "string",
          "name": "",
          "type": "string"
        }
      ],
      "stateMutability": "view",
      "type": "function",
      "constant": true
    },
    {
      "inputs": [
        {
          "internalType": "address",
          "name": "from",
          "type": "address"
        },
        {
          "internalType": "address",
          "name": "to",
          "type": "address"
        },
        {
          "internalType": "uint256",
          "name": "tokenId",
          "type": "uint256"
        }
      ],
      "name": "transferFrom",
      "outputs": [],
      "stateMutability": "nonpayable",
      "type": "function"
    },
    {
      "inputs": [
        {
          "internalType": "address",
          "name": "newOwner",
          "type": "address"
        }
      ],
      "name": "transferOwnership",
      "outputs": [],
      "stateMutability": "nonpayable",
      "type": "function"
    },
    {
      "inputs": [
        {
          "internalType": "uint256",
          "name": "_fee",
          "type": "uint256"
        }
      ],
      "name": "updateFee",
      "outputs": [],
      "stateMutability": "nonpayable",
      "type": "function"
    },
    {
      "inputs": [],
      "name": "withdraw",
      "outputs": [],
      "stateMutability": "payable",
      "type": "function",
      "payable": true
    },
    {
      "inputs": [
        {
          "internalType": "string",
          "name": "_name",
          "type": "string"
        }
      ],
      "name": "createRandomLip",
      "outputs": [],
      "stateMutability": "payable",
      "type": "function",
      "payable": true
    },
    {
      "inputs": [],
      "name": "getLips",
      "outputs": [
        {
          "components": [
            {
              "internalType": "string",
              "name": "name",
              "type": "string"
            },
            {
              "internalType": "uint256",
              "name": "id",
              "type": "uint256"
            },
            {
              "internalType": "uint256",
              "name": "dna",
              "type": "uint256"
            },
            {
              "internalType": "uint8",
              "name": "level",
              "type": "uint8"
            },
            {
              "internalType": "uint8",
              "name": "rarity",
              "type": "uint8"
            }
          ],
          "internalType": "struct LipToken.Lip[]",
          "name": "",
          "type": "tuple[]"
        }
      ],
      "stateMutability": "view",
      "type": "function",
      "constant": true
    },
    {
      "inputs": [],
      "name": "moneySmartContract",
      "outputs": [
        {
          "internalType": "uint256",
          "name": "",
          "type": "uint256"
        }
      ],
      "stateMutability": "view",
      "type": "function",
      "constant": true
    },
    {
      "inputs": [],
      "name": "addressSmartContract",
      "outputs": [
        {
          "internalType": "address",
          "name": "",
          "type": "address"
        }
      ],
      "stateMutability": "view",
      "type": "function",
      "constant": true
    },
    {
      "inputs": [
        {
          "internalType": "address",
          "name": "_owner",
          "type": "address"
        }
      ],
      "name": "getOwnerLips",
      "outputs": [
        {
          "components": [
            {
              "internalType": "string",
              "name": "name",
              "type": "string"
            },
            {
              "internalType": "uint256",
              "name": "id",
              "type": "uint256"
            },
            {
              "internalType": "uint256",
              "name": "dna",
              "type": "uint256"
            },
            {
              "internalType": "uint8",
              "name": "level",
              "type": "uint8"
            },
            {
              "internalType": "uint8",
              "name": "rarity",
              "type": "uint8"
            }
          ],
          "internalType": "struct LipToken.Lip[]",
          "name": "",
          "type": "tuple[]"
        }
      ],
      "stateMutability": "view",
      "type": "function",
      "constant": true
    },
    {
      "inputs": [
        {
          "internalType": "uint256",
          "name": "_lipId",
          "type": "uint256"
        }
      ],
      "name": "levelUp",
      "outputs": [],
      "stateMutability": "nonpayable",
      "type": "function"
    },
    {
      "inputs": [
        {
          "internalType": "address",
          "name": "_address",
          "type": "address"
        }
      ],
      "name": "isContractOwner",
      "outputs": [
        {
          "internalType": "bool",
          "name": "",
          "type": "bool"
        }
      ],
      "stateMutability": "view",
      "type": "function",
      "constant": true
    }
  ],
  "bytecode": "0x6080604052670de0b6b3a7640000600855670de0b6b3a76400006009553480156200002957600080fd5b5060405162003de038038062003de083398181016040528101906200004f91906200029d565b81818160009080519060200190620000699291906200017b565b508060019080519060200190620000829291906200017b565b505050620000a562000099620000ad60201b60201c565b620000b560201b60201c565b505062000480565b600033905090565b6000600660009054906101000a900473ffffffffffffffffffffffffffffffffffffffff16905081600660006101000a81548173ffffffffffffffffffffffffffffffffffffffff021916908373ffffffffffffffffffffffffffffffffffffffff1602179055508173ffffffffffffffffffffffffffffffffffffffff168173ffffffffffffffffffffffffffffffffffffffff167f8be0079c531659141344cd1fd0a4f28419497f9722a3daafe3b4186f6b6457e060405160405180910390a35050565b8280546200018990620003a5565b90600052602060002090601f016020900481019282620001ad5760008555620001f9565b82601f10620001c857805160ff1916838001178555620001f9565b82800160010185558215620001f9579182015b82811115620001f8578251825591602001919060010190620001db565b5b5090506200020891906200020c565b5090565b5b80821115620002275760008160009055506001016200020d565b5090565b6000620002426200023c8462000339565b62000310565b9050828152602081018484840111156200025b57600080fd5b620002688482856200036f565b509392505050565b600082601f8301126200028257600080fd5b8151620002948482602086016200022b565b91505092915050565b60008060408385031215620002b157600080fd5b600083015167ffffffffffffffff811115620002cc57600080fd5b620002da8582860162000270565b925050602083015167ffffffffffffffff811115620002f857600080fd5b620003068582860162000270565b9150509250929050565b60006200031c6200032f565b90506200032a8282620003db565b919050565b6000604051905090565b600067ffffffffffffffff82111562000357576200035662000440565b5b62000362826200046f565b9050602081019050919050565b60005b838110156200038f57808201518184015260208101905062000372565b838111156200039f576000848401525b50505050565b60006002820490506001821680620003be57607f821691505b60208210811415620003d557620003d462000411565b5b50919050565b620003e6826200046f565b810181811067ffffffffffffffff8211171562000408576200040762000440565b5b80604052505050565b7f4e487b7100000000000000000000000000000000000000000000000000000000600052602260045260246000fd5b7f4e487b7100000000000000000000000000000000000000000000000000000000600052604160045260246000fd5b6000601f19601f8301169050919050565b61395080620004906000396000f3fe6080604052600436106101815760003560e01c806383b5daf7116100d1578063a22cb4651161008a578063c87b56dd11610064578063c87b56dd14610556578063de11768814610593578063e985e9c5146105d0578063f2fde38b1461060d57610181565b8063a22cb465146104d9578063b88d4fde14610502578063c2f5168a1461052b57610181565b806383b5daf7146103c75780638c0b9c54146103f25780638da5cb5b1461042f5780639012c4a81461045a57806395d89b411461048357806399470ee6146104ae57610181565b80633ccfd60b1161013e5780636352211e116101185780636352211e1461031a578063698d640c1461035757806370a0823114610373578063715018a6146103b057610181565b80633ccfd60b146102a657806342842e0e146102b05780635ec163db146102d957610181565b806301ffc9a71461018657806306fdde03146101c3578063081812fc146101ee578063095ea7b31461022b5780630ce90ec21461025457806323b872dd1461027d575b600080fd5b34801561019257600080fd5b506101ad60048036038101906101a891906127a0565b610636565b6040516101ba9190612da5565b60405180910390f35b3480156101cf57600080fd5b506101d8610718565b6040516101e59190612dc0565b60405180910390f35b3480156101fa57600080fd5b5061021560048036038101906102109190612833565b6107aa565b6040516102229190612d1c565b60405180910390f35b34801561023757600080fd5b50610252600480360381019061024d9190612764565b6107f0565b005b34801561026057600080fd5b5061027b60048036038101906102769190612833565b610908565b005b34801561028957600080fd5b506102a4600480360381019061029f919061265e565b610a08565b005b6102ae610a68565b005b3480156102bc57600080fd5b506102d760048036038101906102d2919061265e565b610ac6565b005b3480156102e557600080fd5b5061030060048036038101906102fb9190612833565b610ae6565b604051610311959493929190612de2565b60405180910390f35b34801561032657600080fd5b50610341600480360381019061033c9190612833565b610bce565b60405161034e9190612d1c565b60405180910390f35b610371600480360381019061036c91906127f2565b610c80565b005b34801561037f57600080fd5b5061039a600480360381019061039591906125f9565b610cd1565b6040516103a7919061301c565b60405180910390f35b3480156103bc57600080fd5b506103c5610d89565b005b3480156103d357600080fd5b506103dc610d9d565b6040516103e99190612d83565b60405180910390f35b3480156103fe57600080fd5b50610419600480360381019061041491906125f9565b610edc565b6040516104269190612d83565b60405180910390f35b34801561043b57600080fd5b50610444611155565b6040516104519190612d1c565b60405180910390f35b34801561046657600080fd5b50610481600480360381019061047c9190612833565b61117f565b005b34801561048f57600080fd5b50610498611191565b6040516104a59190612dc0565b60405180910390f35b3480156104ba57600080fd5b506104c3611223565b6040516104d0919061301c565b60405180910390f35b3480156104e557600080fd5b5061050060048036038101906104fb9190612728565b61122b565b005b34801561050e57600080fd5b50610529600480360381019061052491906126ad565b611241565b005b34801561053757600080fd5b506105406112a3565b60405161054d9190612d1c565b60405180910390f35b34801561056257600080fd5b5061057d60048036038101906105789190612833565b6112ab565b60405161058a9190612dc0565b60405180910390f35b34801561059f57600080fd5b506105ba60048036038101906105b591906125f9565b611313565b6040516105c79190612da5565b60405180910390f35b3480156105dc57600080fd5b506105f760048036038101906105f29190612622565b611352565b6040516106049190612da5565b60405180910390f35b34801561061957600080fd5b50610634600480360381019061062f91906125f9565b6113e6565b005b60007f80ac58cd000000000000000000000000000000000000000000000000000000007bffffffffffffffffffffffffffffffffffffffffffffffffffffffff1916827bffffffffffffffffffffffffffffffffffffffffffffffffffffffff1916148061070157507f5b5e139f000000000000000000000000000000000000000000000000000000007bffffffffffffffffffffffffffffffffffffffffffffffffffffffff1916827bffffffffffffffffffffffffffffffffffffffffffffffffffffffff1916145b8061071157506107108261146a565b5b9050919050565b606060008054610727906132f2565b80601f0160208091040260200160405190810160405280929190818152602001828054610753906132f2565b80156107a05780601f10610775576101008083540402835291602001916107a0565b820191906000526020600020905b81548152906001019060200180831161078357829003601f168201915b5050505050905090565b60006107b5826114d4565b6004600083815260200190815260200160002060009054906101000a900473ffffffffffffffffffffffffffffffffffffffff169050919050565b60006107fb82610bce565b90508073ffffffffffffffffffffffffffffffffffffffff168373ffffffffffffffffffffffffffffffffffffffff16141561086c576040517f08c379a000000000000000000000000000000000000000000000000000000000815260040161086390612fbc565b60405180910390fd5b8073ffffffffffffffffffffffffffffffffffffffff1661088b61151f565b73ffffffffffffffffffffffffffffffffffffffff1614806108ba57506108b9816108b461151f565b611352565b5b6108f9576040517f08c379a00000000000000000000000000000000000000000000000000000000081526004016108f090612f3c565b60405180910390fd5b6109038383611527565b505050565b3373ffffffffffffffffffffffffffffffffffffffff1661092882610bce565b73ffffffffffffffffffffffffffffffffffffffff161461097e576040517f08c379a000000000000000000000000000000000000000000000000000000000815260040161097590612f1c565b60405180910390fd5b6000600a82815481106109ba577f4e487b7100000000000000000000000000000000000000000000000000000000600052603260045260246000fd5b9060005260206000209060040201905080600301600081819054906101000a900460ff16809291906109eb9061339e565b91906101000a81548160ff021916908360ff160217905550505050565b610a19610a1361151f565b826115e0565b610a58576040517f08c379a0000000000000000000000000000000000000000000000000000000008152600401610a4f90612fdc565b60405180910390fd5b610a63838383611675565b505050565b610a706118dc565b6000610a7a611155565b90508073ffffffffffffffffffffffffffffffffffffffff166108fc479081150290604051600060405180830381858888f19350505050158015610ac2573d6000803e3d6000fd5b5050565b610ae183838360405180602001604052806000815250611241565b505050565b600a8181548110610af657600080fd5b9060005260206000209060040201600091509050806000018054610b19906132f2565b80601f0160208091040260200160405190810160405280929190818152602001828054610b45906132f2565b8015610b925780601f10610b6757610100808354040283529160200191610b92565b820191906000526020600020905b815481529060010190602001808311610b7557829003601f168201915b5050505050908060010154908060020154908060030160009054906101000a900460ff16908060030160019054906101000a900460ff16905085565b6000806002600084815260200190815260200160002060009054906101000a900473ffffffffffffffffffffffffffffffffffffffff169050600073ffffffffffffffffffffffffffffffffffffffff168173ffffffffffffffffffffffffffffffffffffffff161415610c77576040517f08c379a0000000000000000000000000000000000000000000000000000000008152600401610c6e90612f9c565b60405180910390fd5b80915050919050565b600854341015610cc5576040517f08c379a0000000000000000000000000000000000000000000000000000000008152600401610cbc90612ffc565b60405180910390fd5b610cce8161195a565b50565b60008073ffffffffffffffffffffffffffffffffffffffff168273ffffffffffffffffffffffffffffffffffffffff161415610d42576040517f08c379a0000000000000000000000000000000000000000000000000000000008152600401610d3990612efc565b60405180910390fd5b600360008373ffffffffffffffffffffffffffffffffffffffff1673ffffffffffffffffffffffffffffffffffffffff168152602001908152602001600020549050919050565b610d916118dc565b610d9b6000611acd565b565b6060600a805480602002602001604051908101604052809291908181526020016000905b82821015610ed357838290600052602060002090600402016040518060a0016040529081600082018054610df4906132f2565b80601f0160208091040260200160405190810160405280929190818152602001828054610e20906132f2565b8015610e6d5780601f10610e4257610100808354040283529160200191610e6d565b820191906000526020600020905b815481529060010190602001808311610e5057829003601f168201915b5050505050815260200160018201548152602001600282015481526020016003820160009054906101000a900460ff1660ff1660ff1681526020016003820160019054906101000a900460ff1660ff1660ff168152505081526020019060010190610dc1565b50505050905090565b60606000610ee983610cd1565b67ffffffffffffffff811115610f28577f4e487b7100000000000000000000000000000000000000000000000000000000600052604160045260246000fd5b604051908082528060200260200182016040528015610f6157816020015b610f4e6123e8565b815260200190600190039081610f465790505b5090506000805b600a8054905081101561114a578473ffffffffffffffffffffffffffffffffffffffff16610f9582610bce565b73ffffffffffffffffffffffffffffffffffffffff16141561113757600a8181548110610feb577f4e487b7100000000000000000000000000000000000000000000000000000000600052603260045260246000fd5b90600052602060002090600402016040518060a0016040529081600082018054611014906132f2565b80601f0160208091040260200160405190810160405280929190818152602001828054611040906132f2565b801561108d5780601f106110625761010080835404028352916020019161108d565b820191906000526020600020905b81548152906001019060200180831161107057829003601f168201915b5050505050815260200160018201548152602001600282015481526020016003820160009054906101000a900460ff1660ff1660ff1681526020016003820160019054906101000a900460ff1660ff1660ff168152505083838151811061111d577f4e487b7100000000000000000000000000000000000000000000000000000000600052603260045260246000fd5b6020026020010181905250818061113390613355565b9250505b808061114290613355565b915050610f68565b508192505050919050565b6000600660009054906101000a900473ffffffffffffffffffffffffffffffffffffffff16905090565b6111876118dc565b8060088190555050565b6060600180546111a0906132f2565b80601f01602080910402602001604051908101604052809291908181526020018280546111cc906132f2565b80156112195780601f106111ee57610100808354040283529160200191611219565b820191906000526020600020905b8154815290600101906020018083116111fc57829003601f168201915b5050505050905090565b600047905090565b61123d61123661151f565b8383611b93565b5050565b61125261124c61151f565b836115e0565b611291576040517f08c379a000000000000000000000000000000000000000000000000000000000815260040161128890612fdc565b60405180910390fd5b61129d84848484611d00565b50505050565b600030905090565b60606112b6826114d4565b60006112c0611d5c565b905060008151116112e0576040518060200160405280600081525061130b565b806112ea84611d73565b6040516020016112fb929190612ccc565b6040516020818303038152906040525b915050919050565b600061131d611155565b73ffffffffffffffffffffffffffffffffffffffff168273ffffffffffffffffffffffffffffffffffffffff16149050919050565b6000600560008473ffffffffffffffffffffffffffffffffffffffff1673ffffffffffffffffffffffffffffffffffffffff16815260200190815260200160002060008373ffffffffffffffffffffffffffffffffffffffff1673ffffffffffffffffffffffffffffffffffffffff16815260200190815260200160002060009054906101000a900460ff16905092915050565b6113ee6118dc565b600073ffffffffffffffffffffffffffffffffffffffff168173ffffffffffffffffffffffffffffffffffffffff16141561145e576040517f08c379a000000000000000000000000000000000000000000000000000000000815260040161145590612e5c565b60405180910390fd5b61146781611acd565b50565b60007f01ffc9a7000000000000000000000000000000000000000000000000000000007bffffffffffffffffffffffffffffffffffffffffffffffffffffffff1916827bffffffffffffffffffffffffffffffffffffffffffffffffffffffff1916149050919050565b6114dd81611f20565b61151c576040517f08c379a000000000000000000000000000000000000000000000000000000000815260040161151390612f9c565b60405180910390fd5b50565b600033905090565b816004600083815260200190815260200160002060006101000a81548173ffffffffffffffffffffffffffffffffffffffff021916908373ffffffffffffffffffffffffffffffffffffffff160217905550808273ffffffffffffffffffffffffffffffffffffffff1661159a83610bce565b73ffffffffffffffffffffffffffffffffffffffff167f8c5be1e5ebec7d5bd14f71427d1e84f3dd0314c0f7b2291e5b200ac8c7c3b92560405160405180910390a45050565b6000806115ec83610bce565b90508073ffffffffffffffffffffffffffffffffffffffff168473ffffffffffffffffffffffffffffffffffffffff16148061162e575061162d8185611352565b5b8061166c57508373ffffffffffffffffffffffffffffffffffffffff16611654846107aa565b73ffffffffffffffffffffffffffffffffffffffff16145b91505092915050565b8273ffffffffffffffffffffffffffffffffffffffff1661169582610bce565b73ffffffffffffffffffffffffffffffffffffffff16146116eb576040517f08c379a00000000000000000000000000000000000000000000000000000000081526004016116e290612e7c565b60405180910390fd5b600073ffffffffffffffffffffffffffffffffffffffff168273ffffffffffffffffffffffffffffffffffffffff16141561175b576040517f08c379a000000000000000000000000000000000000000000000000000000000815260040161175290612ebc565b60405180910390fd5b611766838383611f8c565b611771600082611527565b6001600360008573ffffffffffffffffffffffffffffffffffffffff1673ffffffffffffffffffffffffffffffffffffffff16815260200190815260200160002060008282546117c191906131fb565b925050819055506001600360008473ffffffffffffffffffffffffffffffffffffffff1673ffffffffffffffffffffffffffffffffffffffff16815260200190815260200160002060008282546118189190613174565b92505081905550816002600083815260200190815260200160002060006101000a81548173ffffffffffffffffffffffffffffffffffffffff021916908373ffffffffffffffffffffffffffffffffffffffff160217905550808273ffffffffffffffffffffffffffffffffffffffff168473ffffffffffffffffffffffffffffffffffffffff167fddf252ad1be2c89b69c2b068fc378daa952ba7f163c4a11628f55a4df523b3ef60405160405180910390a46118d7838383611f91565b505050565b6118e461151f565b73ffffffffffffffffffffffffffffffffffffffff16611902611155565b73ffffffffffffffffffffffffffffffffffffffff1614611958576040517f08c379a000000000000000000000000000000000000000000000000000000000815260040161194f90612f7c565b60405180910390fd5b565b60006119666064611f96565b9050600061197a662386f26fc10000611f96565b905060006040518060a001604052808581526020016007548152602001838152602001600160ff1681526020018460ff168152509050600a81908060018154018082558091505060019003906000526020600020906004020160009091909190915060008201518160000190805190602001906119f892919061241d565b50602082015181600101556040820151816002015560608201518160030160006101000a81548160ff021916908360ff16021790555060808201518160030160016101000a81548160ff021916908360ff1602179055505050611a5d33600754611fdb565b3373ffffffffffffffffffffffffffffffffffffffff167f24d2d558f98bdd9d21339e119fc0b03e213c7d05affd838ac2ee136d90e3bbeb60075484604051611aa7929190613037565b60405180910390a260076000815480929190611ac290613355565b919050555050505050565b6000600660009054906101000a900473ffffffffffffffffffffffffffffffffffffffff16905081600660006101000a81548173ffffffffffffffffffffffffffffffffffffffff021916908373ffffffffffffffffffffffffffffffffffffffff1602179055508173ffffffffffffffffffffffffffffffffffffffff168173ffffffffffffffffffffffffffffffffffffffff167f8be0079c531659141344cd1fd0a4f28419497f9722a3daafe3b4186f6b6457e060405160405180910390a35050565b8173ffffffffffffffffffffffffffffffffffffffff168373ffffffffffffffffffffffffffffffffffffffff161415611c02576040517f08c379a0000000000000000000000000000000000000000000000000000000008152600401611bf990612edc565b60405180910390fd5b80600560008573ffffffffffffffffffffffffffffffffffffffff1673ffffffffffffffffffffffffffffffffffffffff16815260200190815260200160002060008473ffffffffffffffffffffffffffffffffffffffff1673ffffffffffffffffffffffffffffffffffffffff16815260200190815260200160002060006101000a81548160ff0219169083151502179055508173ffffffffffffffffffffffffffffffffffffffff168373ffffffffffffffffffffffffffffffffffffffff167f17307eab39ab6107e8899845ad3d59bd9653f200f220920489ca2b5937696c3183604051611cf39190612da5565b60405180910390a3505050565b611d0b848484611675565b611d1784848484611ff9565b611d56576040517f08c379a0000000000000000000000000000000000000000000000000000000008152600401611d4d90612e3c565b60405180910390fd5b50505050565b606060405180602001604052806000815250905090565b60606000821415611dbb576040518060400160405280600181526020017f30000000000000000000000000000000000000000000000000000000000000008152509050611f1b565b600082905060005b60008214611ded578080611dd690613355565b915050600a82611de691906131ca565b9150611dc3565b60008167ffffffffffffffff811115611e2f577f4e487b7100000000000000000000000000000000000000000000000000000000600052604160045260246000fd5b6040519080825280601f01601f191660200182016040528015611e615781602001600182028036833780820191505090505b5090505b60008514611f1457600182611e7a91906131fb565b9150600a85611e8991906133f6565b6030611e959190613174565b60f81b818381518110611ed1577f4e487b7100000000000000000000000000000000000000000000000000000000600052603260045260246000fd5b60200101907effffffffffffffffffffffffffffffffffffffffffffffffffffffffffffff1916908160001a905350600a85611f0d91906131ca565b9450611e65565b8093505050505b919050565b60008073ffffffffffffffffffffffffffffffffffffffff166002600084815260200190815260200160002060009054906101000a900473ffffffffffffffffffffffffffffffffffffffff1673ffffffffffffffffffffffffffffffffffffffff1614159050919050565b505050565b505050565b6000804233604051602001611fac929190612cf0565b6040516020818303038152906040528051906020012060001c90508281611fd391906133f6565b915050919050565b611ff5828260405180602001604052806000815250612190565b5050565b600061201a8473ffffffffffffffffffffffffffffffffffffffff166121eb565b15612183578373ffffffffffffffffffffffffffffffffffffffff1663150b7a0261204361151f565b8786866040518563ffffffff1660e01b81526004016120659493929190612d37565b602060405180830381600087803b15801561207f57600080fd5b505af19250505080156120b057506040513d601f19601f820116820180604052508101906120ad91906127c9565b60015b612133573d80600081146120e0576040519150601f19603f3d011682016040523d82523d6000602084013e6120e5565b606091505b5060008151141561212b576040517f08c379a000000000000000000000000000000000000000000000000000000000815260040161212290612e3c565b60405180910390fd5b805181602001fd5b63150b7a0260e01b7bffffffffffffffffffffffffffffffffffffffffffffffffffffffff1916817bffffffffffffffffffffffffffffffffffffffffffffffffffffffff191614915050612188565b600190505b949350505050565b61219a838361220e565b6121a76000848484611ff9565b6121e6576040517f08c379a00000000000000000000000000000000000000000000000000000000081526004016121dd90612e3c565b60405180910390fd5b505050565b6000808273ffffffffffffffffffffffffffffffffffffffff163b119050919050565b600073ffffffffffffffffffffffffffffffffffffffff168273ffffffffffffffffffffffffffffffffffffffff16141561227e576040517f08c379a000000000000000000000000000000000000000000000000000000000815260040161227590612f5c565b60405180910390fd5b61228781611f20565b156122c7576040517f08c379a00000000000000000000000000000000000000000000000000000000081526004016122be90612e9c565b60405180910390fd5b6122d360008383611f8c565b6001600360008473ffffffffffffffffffffffffffffffffffffffff1673ffffffffffffffffffffffffffffffffffffffff16815260200190815260200160002060008282546123239190613174565b92505081905550816002600083815260200190815260200160002060006101000a81548173ffffffffffffffffffffffffffffffffffffffff021916908373ffffffffffffffffffffffffffffffffffffffff160217905550808273ffffffffffffffffffffffffffffffffffffffff16600073ffffffffffffffffffffffffffffffffffffffff167fddf252ad1be2c89b69c2b068fc378daa952ba7f163c4a11628f55a4df523b3ef60405160405180910390a46123e460008383611f91565b5050565b6040518060a00160405280606081526020016000815260200160008152602001600060ff168152602001600060ff1681525090565b828054612429906132f2565b90600052602060002090601f01602090048101928261244b5760008555612492565b82601f1061246457805160ff1916838001178555612492565b82800160010185558215612492579182015b82811115612491578251825591602001919060010190612476565b5b50905061249f91906124a3565b5090565b5b808211156124bc5760008160009055506001016124a4565b5090565b60006124d36124ce84613085565b613060565b9050828152602081018484840111156124eb57600080fd5b6124f68482856132b0565b509392505050565b600061251161250c846130b6565b613060565b90508281526020810184848401111561252957600080fd5b6125348482856132b0565b509392505050565b60008135905061254b816138be565b92915050565b600081359050612560816138d5565b92915050565b600081359050612575816138ec565b92915050565b60008151905061258a816138ec565b92915050565b600082601f8301126125a157600080fd5b81356125b18482602086016124c0565b91505092915050565b600082601f8301126125cb57600080fd5b81356125db8482602086016124fe565b91505092915050565b6000813590506125f381613903565b92915050565b60006020828403121561260b57600080fd5b60006126198482850161253c565b91505092915050565b6000806040838503121561263557600080fd5b60006126438582860161253c565b92505060206126548582860161253c565b9150509250929050565b60008060006060848603121561267357600080fd5b60006126818682870161253c565b93505060206126928682870161253c565b92505060406126a3868287016125e4565b9150509250925092565b600080600080608085870312156126c357600080fd5b60006126d18782880161253c565b94505060206126e28782880161253c565b93505060406126f3878288016125e4565b925050606085013567ffffffffffffffff81111561271057600080fd5b61271c87828801612590565b91505092959194509250565b6000806040838503121561273b57600080fd5b60006127498582860161253c565b925050602061275a85828601612551565b9150509250929050565b6000806040838503121561277757600080fd5b60006127858582860161253c565b9250506020612796858286016125e4565b9150509250929050565b6000602082840312156127b257600080fd5b60006127c084828501612566565b91505092915050565b6000602082840312156127db57600080fd5b60006127e98482850161257b565b91505092915050565b60006020828403121561280457600080fd5b600082013567ffffffffffffffff81111561281e57600080fd5b61282a848285016125ba565b91505092915050565b60006020828403121561284557600080fd5b6000612853848285016125e4565b91505092915050565b60006128688383612c03565b905092915050565b6128798161322f565b82525050565b61289061288b8261322f565b6133c8565b82525050565b60006128a1826130f7565b6128ab8185613125565b9350836020820285016128bd856130e7565b8060005b858110156128f957848403895281516128da858261285c565b94506128e583613118565b925060208a019950506001810190506128c1565b50829750879550505050505092915050565b61291481613241565b82525050565b600061292582613102565b61292f8185613136565b935061293f8185602086016132bf565b612948816134e3565b840191505092915050565b600061295e8261310d565b6129688185613147565b93506129788185602086016132bf565b612981816134e3565b840191505092915050565b60006129978261310d565b6129a18185613158565b93506129b18185602086016132bf565b6129ba816134e3565b840191505092915050565b60006129d08261310d565b6129da8185613169565b93506129ea8185602086016132bf565b80840191505092915050565b6000612a03603283613158565b9150612a0e82613501565b604082019050919050565b6000612a26602683613158565b9150612a3182613550565b604082019050919050565b6000612a49602583613158565b9150612a548261359f565b604082019050919050565b6000612a6c601c83613158565b9150612a77826135ee565b602082019050919050565b6000612a8f602483613158565b9150612a9a82613617565b604082019050919050565b6000612ab2601983613158565b9150612abd82613666565b602082019050919050565b6000612ad5602983613158565b9150612ae08261368f565b604082019050919050565b6000612af8602183613158565b9150612b03826136de565b604082019050919050565b6000612b1b603e83613158565b9150612b268261372d565b604082019050919050565b6000612b3e602083613158565b9150612b498261377c565b602082019050919050565b6000612b61602083613158565b9150612b6c826137a5565b602082019050919050565b6000612b84601883613158565b9150612b8f826137ce565b602082019050919050565b6000612ba7602183613158565b9150612bb2826137f7565b604082019050919050565b6000612bca602e83613158565b9150612bd582613846565b604082019050919050565b6000612bed601b83613158565b9150612bf882613895565b602082019050919050565b600060a0830160008301518482036000860152612c208282612953565b9150506020830151612c356020860182612c79565b506040830151612c486040860182612c79565b506060830151612c5b6060860182612cae565b506080830151612c6e6080860182612cae565b508091505092915050565b612c8281613299565b82525050565b612c9181613299565b82525050565b612ca8612ca382613299565b6133ec565b82525050565b612cb7816132a3565b82525050565b612cc6816132a3565b82525050565b6000612cd882856129c5565b9150612ce482846129c5565b91508190509392505050565b6000612cfc8285612c97565b602082019150612d0c828461287f565b6014820191508190509392505050565b6000602082019050612d316000830184612870565b92915050565b6000608082019050612d4c6000830187612870565b612d596020830186612870565b612d666040830185612c88565b8181036060830152612d78818461291a565b905095945050505050565b60006020820190508181036000830152612d9d8184612896565b905092915050565b6000602082019050612dba600083018461290b565b92915050565b60006020820190508181036000830152612dda818461298c565b905092915050565b600060a0820190508181036000830152612dfc818861298c565b9050612e0b6020830187612c88565b612e186040830186612c88565b612e256060830185612cbd565b612e326080830184612cbd565b9695505050505050565b60006020820190508181036000830152612e55816129f6565b9050919050565b60006020820190508181036000830152612e7581612a19565b9050919050565b60006020820190508181036000830152612e9581612a3c565b9050919050565b60006020820190508181036000830152612eb581612a5f565b9050919050565b60006020820190508181036000830152612ed581612a82565b9050919050565b60006020820190508181036000830152612ef581612aa5565b9050919050565b60006020820190508181036000830152612f1581612ac8565b9050919050565b60006020820190508181036000830152612f3581612aeb565b9050919050565b60006020820190508181036000830152612f5581612b0e565b9050919050565b60006020820190508181036000830152612f7581612b31565b9050919050565b60006020820190508181036000830152612f9581612b54565b9050919050565b60006020820190508181036000830152612fb581612b77565b9050919050565b60006020820190508181036000830152612fd581612b9a565b9050919050565b60006020820190508181036000830152612ff581612bbd565b9050919050565b6000602082019050818103600083015261301581612be0565b9050919050565b60006020820190506130316000830184612c88565b92915050565b600060408201905061304c6000830185612c88565b6130596020830184612c88565b9392505050565b600061306a61307b565b90506130768282613324565b919050565b6000604051905090565b600067ffffffffffffffff8211156130a05761309f6134b4565b5b6130a9826134e3565b9050602081019050919050565b600067ffffffffffffffff8211156130d1576130d06134b4565b5b6130da826134e3565b9050602081019050919050565b6000819050602082019050919050565b600081519050919050565b600081519050919050565b600081519050919050565b6000602082019050919050565b600082825260208201905092915050565b600082825260208201905092915050565b600082825260208201905092915050565b600082825260208201905092915050565b600081905092915050565b600061317f82613299565b915061318a83613299565b9250827fffffffffffffffffffffffffffffffffffffffffffffffffffffffffffffffff038211156131bf576131be613427565b5b828201905092915050565b60006131d582613299565b91506131e083613299565b9250826131f0576131ef613456565b5b828204905092915050565b600061320682613299565b915061321183613299565b92508282101561322457613223613427565b5b828203905092915050565b600061323a82613279565b9050919050565b60008115159050919050565b60007fffffffff0000000000000000000000000000000000000000000000000000000082169050919050565b600073ffffffffffffffffffffffffffffffffffffffff82169050919050565b6000819050919050565b600060ff82169050919050565b82818337600083830152505050565b60005b838110156132dd5780820151818401526020810190506132c2565b838111156132ec576000848401525b50505050565b6000600282049050600182168061330a57607f821691505b6020821081141561331e5761331d613485565b5b50919050565b61332d826134e3565b810181811067ffffffffffffffff8211171561334c5761334b6134b4565b5b80604052505050565b600061336082613299565b91507fffffffffffffffffffffffffffffffffffffffffffffffffffffffffffffffff82141561339357613392613427565b5b600182019050919050565b60006133a9826132a3565b915060ff8214156133bd576133bc613427565b5b600182019050919050565b60006133d3826133da565b9050919050565b60006133e5826134f4565b9050919050565b6000819050919050565b600061340182613299565b915061340c83613299565b92508261341c5761341b613456565b5b828206905092915050565b7f4e487b7100000000000000000000000000000000000000000000000000000000600052601160045260246000fd5b7f4e487b7100000000000000000000000000000000000000000000000000000000600052601260045260246000fd5b7f4e487b7100000000000000000000000000000000000000000000000000000000600052602260045260246000fd5b7f4e487b7100000000000000000000000000000000000000000000000000000000600052604160045260246000fd5b6000601f19601f8301169050919050565b60008160601b9050919050565b7f4552433732313a207472616e7366657220746f206e6f6e20455243373231526560008201527f63656976657220696d706c656d656e7465720000000000000000000000000000602082015250565b7f4f776e61626c653a206e6577206f776e657220697320746865207a65726f206160008201527f6464726573730000000000000000000000000000000000000000000000000000602082015250565b7f4552433732313a207472616e736665722066726f6d20696e636f72726563742060008201527f6f776e6572000000000000000000000000000000000000000000000000000000602082015250565b7f4552433732313a20746f6b656e20616c7265616479206d696e74656400000000600082015250565b7f4552433732313a207472616e7366657220746f20746865207a65726f2061646460008201527f7265737300000000000000000000000000000000000000000000000000000000602082015250565b7f4552433732313a20617070726f766520746f2063616c6c657200000000000000600082015250565b7f4552433732313a2061646472657373207a65726f206973206e6f74206120766160008201527f6c6964206f776e65720000000000000000000000000000000000000000000000602082015250565b7f5573746564206e6f20657320656c206475656e696f2064652065737465204e4660008201527f5400000000000000000000000000000000000000000000000000000000000000602082015250565b7f4552433732313a20617070726f76652063616c6c6572206973206e6f7420746f60008201527f6b656e206f776e6572206e6f7220617070726f76656420666f7220616c6c0000602082015250565b7f4552433732313a206d696e7420746f20746865207a65726f2061646472657373600082015250565b7f4f776e61626c653a2063616c6c6572206973206e6f7420746865206f776e6572600082015250565b7f4552433732313a20696e76616c696420746f6b656e2049440000000000000000600082015250565b7f4552433732313a20617070726f76616c20746f2063757272656e74206f776e6560008201527f7200000000000000000000000000000000000000000000000000000000000000602082015250565b7f4552433732313a2063616c6c6572206973206e6f7420746f6b656e206f776e6560008201527f72206e6f7220617070726f766564000000000000000000000000000000000000602082015250565b7f4e6f207469656e6520737566696369656e74657320666f6e646f730000000000600082015250565b6138c78161322f565b81146138d257600080fd5b50565b6138de81613241565b81146138e957600080fd5b50565b6138f58161324d565b811461390057600080fd5b50565b61390c81613299565b811461391757600080fd5b5056fea2646970667358221220192f4bde95b25944d0f99a56fb14a00a600492e0775a0357f3bd807045772ea664736f6c63430008010033",
  "immutableReferences": {},
  "source": "/// SPDX-License-Identifier: MIT\r\npragma solidity ^0.8.0;\r\n\r\n//import \"./token/ERC721/ERC721.sol\";\r\n//import \"./access/Ownable.sol\";\r\n\r\nimport \"@openzeppelin/contracts/token/ERC721/ERC721.sol\";\r\nimport \"@openzeppelin/contracts/access/Ownable.sol\";\r\n\r\ncontract LipToken is ERC721, Ownable {\r\n    // Constructor de mi Smart Contract\r\n    constructor(string memory _name, string memory _symbol) \r\n           ERC721(_name, _symbol) {        \r\n    }\r\n\r\n    // =====================================================\r\n    // Declaraciones iniciales\r\n\r\n    // Contador de tokens NFT\r\n    uint256 counter;\r\n    // fijacin en el precio de los tokens NFT\r\n    uint256 fee = 1 ether;\r\n    uint256 feeLevel = 1 ether;\r\n    // Estructura de datos con las propiedades del lip (labio)\r\n    struct Lip {\r\n        string name;\r\n        uint256 id;\r\n        uint256 dna;\r\n        uint8 level;\r\n        // uint8 price;  // para futuros automatizaciones de precios\r\n        uint8 rarity;\r\n    }\r\n\r\n    // Estructura de almacenamiento\r\n    Lip[] public lips;\r\n    // Declaracion de un evento\r\n    event NewLip(address indexed owner, uint256 id, uint256 dna);\r\n\r\n    // ===============================================================\r\n    // funciones de ayuda\r\n\r\n    // Asignacin de un nmero aleatorio\r\n    function _createRandomNum(uint256 _mod) internal view returns (uint256) {\r\n        uint256 randomNum = uint256(keccak256(abi.encodePacked(block.timestamp, msg.sender)));\r\n        return randomNum % _mod;\r\n    }\r\n\r\n    // Actualizacin del precio del Token NFT\r\n    function updateFee(uint256 _fee) external onlyOwner {\r\n        fee = _fee;\r\n    }\r\n\r\n    // Extraccin de los ethers del Smart Contract hacia el Owner\r\n    function withdraw() external payable onlyOwner {\r\n        address payable _owner = payable(owner());\r\n        _owner.transfer(address(this).balance);\r\n    }\r\n\r\n    // Creacin del Token NFT (lip/labio)\r\n    function _createLip(string memory _name) internal {\r\n       uint8 randRarity = uint8(_createRandomNum(100));\r\n       uint randDna = _createRandomNum(10**16);\r\n       Lip memory newLip = Lip(_name, counter, randDna, 1, randRarity);\r\n       lips.push(newLip);\r\n       _safeMint(msg.sender, counter);\r\n       emit NewLip(msg.sender, counter, randDna);\r\n       counter++;\r\n    }\r\n\r\n    //==================================================================\r\n    // Creacin de un labio aleatorio\r\n    function createRandomLip(string memory _name) public payable {\r\n        require(msg.value >= fee, \"No tiene suficientes fondos\");\r\n        _createLip(_name);\r\n    }\r\n\r\n    // Obtencin de todos los labios creados\r\n    function getLips() public view returns (Lip[] memory) {\r\n        return lips;\r\n    }\r\n\r\n    // Visualizar el balance del smart contract\r\n    function moneySmartContract() public view returns (uint256) {\r\n        return address(this).balance;\r\n    }\r\n\r\n    // Visualizar la direccin del Smart Contract\r\n    function addressSmartContract() public view returns (address) {\r\n        return address(this);\r\n    }\r\n\r\n    // Obtencin de los tokens NFT usuario\r\n    function getOwnerLips(address _owner) public view returns (Lip[] memory) {\r\n        Lip [] memory result = new Lip[] (balanceOf(_owner));\r\n        uint256 _counter = 0;\r\n        for (uint256 i = 0; i < lips.length; i++) {\r\n            if (ownerOf(i) == _owner) {\r\n                result[_counter] = lips[i];\r\n                _counter++;\r\n            }\r\n        }\r\n        return result;\r\n    }\r\n\r\n    function levelUp(uint256 _lipId) public {        \r\n        require(ownerOf(_lipId) == msg.sender, \"Usted no es el duenio de este NFT\") ;\r\n       //  require(msg.value >= 0.05 ether, \"No tiene suficientes fondos para subir de nivel\");\r\n        Lip storage lip = lips[_lipId];\r\n        lip.level++;        \r\n    }\r\n\r\n    function isContractOwner(address _address) public view returns (bool) {\r\n        return _address == owner();\r\n    }\r\n}",
  "sourcePath": "C:\\Users\\Antonio\\Documents\\cursos_udemy\\Blockchain\\Curso de desarrollo de Videojuegos NFT de la A a la Z\\secciones\\seccion19-Creando un videojuego\\angular\\Dapp-lips\\Blockchain\\contracts\\LipToken.sol",
  "compiler": {
    "name": "solc",
    "version": "0.8.1+commit.df193b15.Emscripten.clang"
  },
  "schemaVersion": "3.4.7",
  "updatedAt": "2022-09-11T18:19:12.570Z",
  "networkType": "ethereum",
  "devdoc": {
    "kind": "dev",
    "methods": {
      "approve(address,uint256)": {
        "details": "See {IERC721-approve}."
      },
      "balanceOf(address)": {
        "details": "See {IERC721-balanceOf}."
      },
      "getApproved(uint256)": {
        "details": "See {IERC721-getApproved}."
      },
      "isApprovedForAll(address,address)": {
        "details": "See {IERC721-isApprovedForAll}."
      },
      "name()": {
        "details": "See {IERC721Metadata-name}."
      },
      "owner()": {
        "details": "Returns the address of the current owner."
      },
      "ownerOf(uint256)": {
        "details": "See {IERC721-ownerOf}."
      },
      "renounceOwnership()": {
        "details": "Leaves the contract without owner. It will not be possible to call `onlyOwner` functions anymore. Can only be called by the current owner. NOTE: Renouncing ownership will leave the contract without an owner, thereby removing any functionality that is only available to the owner."
      },
      "safeTransferFrom(address,address,uint256)": {
        "details": "See {IERC721-safeTransferFrom}."
      },
      "safeTransferFrom(address,address,uint256,bytes)": {
        "details": "See {IERC721-safeTransferFrom}."
      },
      "setApprovalForAll(address,bool)": {
        "details": "See {IERC721-setApprovalForAll}."
      },
      "supportsInterface(bytes4)": {
        "details": "See {IERC165-supportsInterface}."
      },
      "symbol()": {
        "details": "See {IERC721Metadata-symbol}."
      },
      "tokenURI(uint256)": {
        "details": "See {IERC721Metadata-tokenURI}."
      },
      "transferFrom(address,address,uint256)": {
        "details": "See {IERC721-transferFrom}."
      },
      "transferOwnership(address)": {
        "details": "Transfers ownership of the contract to a new account (`newOwner`). Can only be called by the current owner."
      }
    },
    "version": 1
  },
  "userdoc": {
    "kind": "user",
    "methods": {},
    "version": 1
  }
}