{
  "contractName": "LipToken",
  "abi": [
    {
      "inputs": [
        {
          "internalType": "string",
          "name": "_name",
          "type": "string"
        },
        {
          "internalType": "string",
          "name": "_symbol",
          "type": "string"
        }
      ],
      "stateMutability": "nonpayable",
      "type": "constructor"
    },
    {
      "anonymous": false,
      "inputs": [
        {
          "indexed": true,
          "internalType": "address",
          "name": "owner",
          "type": "address"
        },
        {
          "indexed": true,
          "internalType": "address",
          "name": "approved",
          "type": "address"
        },
        {
          "indexed": true,
          "internalType": "uint256",
          "name": "tokenId",
          "type": "uint256"
        }
      ],
      "name": "Approval",
      "type": "event"
    },
    {
      "anonymous": false,
      "inputs": [
        {
          "indexed": true,
          "internalType": "address",
          "name": "owner",
          "type": "address"
        },
        {
          "indexed": true,
          "internalType": "address",
          "name": "operator",
          "type": "address"
        },
        {
          "indexed": false,
          "internalType": "bool",
          "name": "approved",
          "type": "bool"
        }
      ],
      "name": "ApprovalForAll",
      "type": "event"
    },
    {
      "anonymous": false,
      "inputs": [
        {
          "indexed": true,
          "internalType": "address",
          "name": "owner",
          "type": "address"
        },
        {
          "indexed": false,
          "internalType": "uint256",
          "name": "id",
          "type": "uint256"
        },
        {
          "indexed": false,
          "internalType": "uint256",
          "name": "dna",
          "type": "uint256"
        }
      ],
      "name": "NewLip",
      "type": "event"
    },
    {
      "anonymous": false,
      "inputs": [
        {
          "indexed": true,
          "internalType": "address",
          "name": "previousOwner",
          "type": "address"
        },
        {
          "indexed": true,
          "internalType": "address",
          "name": "newOwner",
          "type": "address"
        }
      ],
      "name": "OwnershipTransferred",
      "type": "event"
    },
    {
      "anonymous": false,
      "inputs": [
        {
          "indexed": true,
          "internalType": "address",
          "name": "from",
          "type": "address"
        },
        {
          "indexed": true,
          "internalType": "address",
          "name": "to",
          "type": "address"
        },
        {
          "indexed": true,
          "internalType": "uint256",
          "name": "tokenId",
          "type": "uint256"
        }
      ],
      "name": "Transfer",
      "type": "event"
    },
    {
      "inputs": [
        {
          "internalType": "address",
          "name": "to",
          "type": "address"
        },
        {
          "internalType": "uint256",
          "name": "tokenId",
          "type": "uint256"
        }
      ],
      "name": "approve",
      "outputs": [],
      "stateMutability": "nonpayable",
      "type": "function"
    },
    {
      "inputs": [
        {
          "internalType": "address",
          "name": "owner",
          "type": "address"
        }
      ],
      "name": "balanceOf",
      "outputs": [
        {
          "internalType": "uint256",
          "name": "",
          "type": "uint256"
        }
      ],
      "stateMutability": "view",
      "type": "function",
      "constant": true
    },
    {
      "inputs": [
        {
          "internalType": "uint256",
          "name": "tokenId",
          "type": "uint256"
        }
      ],
      "name": "getApproved",
      "outputs": [
        {
          "internalType": "address",
          "name": "",
          "type": "address"
        }
      ],
      "stateMutability": "view",
      "type": "function",
      "constant": true
    },
    {
      "inputs": [
        {
          "internalType": "address",
          "name": "owner",
          "type": "address"
        },
        {
          "internalType": "address",
          "name": "operator",
          "type": "address"
        }
      ],
      "name": "isApprovedForAll",
      "outputs": [
        {
          "internalType": "bool",
          "name": "",
          "type": "bool"
        }
      ],
      "stateMutability": "view",
      "type": "function",
      "constant": true
    },
    {
      "inputs": [
        {
          "internalType": "uint256",
          "name": "",
          "type": "uint256"
        }
      ],
      "name": "lips",
      "outputs": [
        {
          "internalType": "string",
          "name": "name",
          "type": "string"
        },
        {
          "internalType": "uint256",
          "name": "id",
          "type": "uint256"
        },
        {
          "internalType": "uint256",
          "name": "dna",
          "type": "uint256"
        },
        {
          "internalType": "uint8",
          "name": "level",
          "type": "uint8"
        },
        {
          "internalType": "uint8",
          "name": "rarity",
          "type": "uint8"
        }
      ],
      "stateMutability": "view",
      "type": "function",
      "constant": true
    },
    {
      "inputs": [],
      "name": "name",
      "outputs": [
        {
          "internalType": "string",
          "name": "",
          "type": "string"
        }
      ],
      "stateMutability": "view",
      "type": "function",
      "constant": true
    },
    {
      "inputs": [],
      "name": "owner",
      "outputs": [
        {
          "internalType": "address",
          "name": "",
          "type": "address"
        }
      ],
      "stateMutability": "view",
      "type": "function",
      "constant": true
    },
    {
      "inputs": [
        {
          "internalType": "uint256",
          "name": "tokenId",
          "type": "uint256"
        }
      ],
      "name": "ownerOf",
      "outputs": [
        {
          "internalType": "address",
          "name": "",
          "type": "address"
        }
      ],
      "stateMutability": "view",
      "type": "function",
      "constant": true
    },
    {
      "inputs": [],
      "name": "renounceOwnership",
      "outputs": [],
      "stateMutability": "nonpayable",
      "type": "function"
    },
    {
      "inputs": [
        {
          "internalType": "address",
          "name": "from",
          "type": "address"
        },
        {
          "internalType": "address",
          "name": "to",
          "type": "address"
        },
        {
          "internalType": "uint256",
          "name": "tokenId",
          "type": "uint256"
        }
      ],
      "name": "safeTransferFrom",
      "outputs": [],
      "stateMutability": "nonpayable",
      "type": "function"
    },
    {
      "inputs": [
        {
          "internalType": "address",
          "name": "from",
          "type": "address"
        },
        {
          "internalType": "address",
          "name": "to",
          "type": "address"
        },
        {
          "internalType": "uint256",
          "name": "tokenId",
          "type": "uint256"
        },
        {
          "internalType": "bytes",
          "name": "data",
          "type": "bytes"
        }
      ],
      "name": "safeTransferFrom",
      "outputs": [],
      "stateMutability": "nonpayable",
      "type": "function"
    },
    {
      "inputs": [
        {
          "internalType": "address",
          "name": "operator",
          "type": "address"
        },
        {
          "internalType": "bool",
          "name": "approved",
          "type": "bool"
        }
      ],
      "name": "setApprovalForAll",
      "outputs": [],
      "stateMutability": "nonpayable",
      "type": "function"
    },
    {
      "inputs": [
        {
          "internalType": "bytes4",
          "name": "interfaceId",
          "type": "bytes4"
        }
      ],
      "name": "supportsInterface",
      "outputs": [
        {
          "internalType": "bool",
          "name": "",
          "type": "bool"
        }
      ],
      "stateMutability": "view",
      "type": "function",
      "constant": true
    },
    {
      "inputs": [],
      "name": "symbol",
      "outputs": [
        {
          "internalType": "string",
          "name": "",
          "type": "string"
        }
      ],
      "stateMutability": "view",
      "type": "function",
      "constant": true
    },
    {
      "inputs": [
        {
          "internalType": "uint256",
          "name": "tokenId",
          "type": "uint256"
        }
      ],
      "name": "tokenURI",
      "outputs": [
        {
          "internalType": "string",
          "name": "",
          "type": "string"
        }
      ],
      "stateMutability": "view",
      "type": "function",
      "constant": true
    },
    {
      "inputs": [
        {
          "internalType": "address",
          "name": "from",
          "type": "address"
        },
        {
          "internalType": "address",
          "name": "to",
          "type": "address"
        },
        {
          "internalType": "uint256",
          "name": "tokenId",
          "type": "uint256"
        }
      ],
      "name": "transferFrom",
      "outputs": [],
      "stateMutability": "nonpayable",
      "type": "function"
    },
    {
      "inputs": [
        {
          "internalType": "address",
          "name": "newOwner",
          "type": "address"
        }
      ],
      "name": "transferOwnership",
      "outputs": [],
      "stateMutability": "nonpayable",
      "type": "function"
    },
    {
      "inputs": [
        {
          "internalType": "uint256",
          "name": "_fee",
          "type": "uint256"
        }
      ],
      "name": "updateFee",
      "outputs": [],
      "stateMutability": "nonpayable",
      "type": "function"
    },
    {
      "inputs": [],
      "name": "withdraw",
      "outputs": [],
      "stateMutability": "payable",
      "type": "function",
      "payable": true
    },
    {
      "inputs": [
        {
          "internalType": "string",
          "name": "_name",
          "type": "string"
        }
      ],
      "name": "createRandomLip",
      "outputs": [],
      "stateMutability": "payable",
      "type": "function",
      "payable": true
    },
    {
      "inputs": [],
      "name": "getLips",
      "outputs": [
        {
          "components": [
            {
              "internalType": "string",
              "name": "name",
              "type": "string"
            },
            {
              "internalType": "uint256",
              "name": "id",
              "type": "uint256"
            },
            {
              "internalType": "uint256",
              "name": "dna",
              "type": "uint256"
            },
            {
              "internalType": "uint8",
              "name": "level",
              "type": "uint8"
            },
            {
              "internalType": "uint8",
              "name": "rarity",
              "type": "uint8"
            }
          ],
          "internalType": "struct LipToken.Lip[]",
          "name": "",
          "type": "tuple[]"
        }
      ],
      "stateMutability": "view",
      "type": "function",
      "constant": true
    },
    {
      "inputs": [],
      "name": "moneySmartContract",
      "outputs": [
        {
          "internalType": "uint256",
          "name": "",
          "type": "uint256"
        }
      ],
      "stateMutability": "view",
      "type": "function",
      "constant": true
    },
    {
      "inputs": [],
      "name": "addressSmartContract",
      "outputs": [
        {
          "internalType": "address",
          "name": "",
          "type": "address"
        }
      ],
      "stateMutability": "view",
      "type": "function",
      "constant": true
    },
    {
      "inputs": [
        {
          "internalType": "address",
          "name": "_owner",
          "type": "address"
        }
      ],
      "name": "getOwnerLips",
      "outputs": [
        {
          "components": [
            {
              "internalType": "string",
              "name": "name",
              "type": "string"
            },
            {
              "internalType": "uint256",
              "name": "id",
              "type": "uint256"
            },
            {
              "internalType": "uint256",
              "name": "dna",
              "type": "uint256"
            },
            {
              "internalType": "uint8",
              "name": "level",
              "type": "uint8"
            },
            {
              "internalType": "uint8",
              "name": "rarity",
              "type": "uint8"
            }
          ],
          "internalType": "struct LipToken.Lip[]",
          "name": "",
          "type": "tuple[]"
        }
      ],
      "stateMutability": "view",
      "type": "function",
      "constant": true
    },
    {
      "inputs": [
        {
          "internalType": "uint256",
          "name": "_lipId",
          "type": "uint256"
        }
      ],
      "name": "levelUp",
      "outputs": [],
      "stateMutability": "payable",
      "type": "function",
      "payable": true
    }
  ],
  "bytecode": "0x6080604052670de0b6b3a764000060085566b1a2bc2ec500006009553480156200002857600080fd5b5060405162003e1238038062003e1283398181016040528101906200004e91906200029c565b81818160009080519060200190620000689291906200017a565b508060019080519060200190620000819291906200017a565b505050620000a462000098620000ac60201b60201c565b620000b460201b60201c565b50506200047f565b600033905090565b6000600660009054906101000a900473ffffffffffffffffffffffffffffffffffffffff16905081600660006101000a81548173ffffffffffffffffffffffffffffffffffffffff021916908373ffffffffffffffffffffffffffffffffffffffff1602179055508173ffffffffffffffffffffffffffffffffffffffff168173ffffffffffffffffffffffffffffffffffffffff167f8be0079c531659141344cd1fd0a4f28419497f9722a3daafe3b4186f6b6457e060405160405180910390a35050565b8280546200018890620003a4565b90600052602060002090601f016020900481019282620001ac5760008555620001f8565b82601f10620001c757805160ff1916838001178555620001f8565b82800160010185558215620001f8579182015b82811115620001f7578251825591602001919060010190620001da565b5b5090506200020791906200020b565b5090565b5b80821115620002265760008160009055506001016200020c565b5090565b6000620002416200023b8462000338565b6200030f565b9050828152602081018484840111156200025a57600080fd5b620002678482856200036e565b509392505050565b600082601f8301126200028157600080fd5b8151620002938482602086016200022a565b91505092915050565b60008060408385031215620002b057600080fd5b600083015167ffffffffffffffff811115620002cb57600080fd5b620002d9858286016200026f565b925050602083015167ffffffffffffffff811115620002f757600080fd5b62000305858286016200026f565b9150509250929050565b60006200031b6200032e565b9050620003298282620003da565b919050565b6000604051905090565b600067ffffffffffffffff8211156200035657620003556200043f565b5b62000361826200046e565b9050602081019050919050565b60005b838110156200038e57808201518184015260208101905062000371565b838111156200039e576000848401525b50505050565b60006002820490506001821680620003bd57607f821691505b60208210811415620003d457620003d362000410565b5b50919050565b620003e5826200046e565b810181811067ffffffffffffffff821117156200040757620004066200043f565b5b80604052505050565b7f4e487b7100000000000000000000000000000000000000000000000000000000600052602260045260246000fd5b7f4e487b7100000000000000000000000000000000000000000000000000000000600052604160045260246000fd5b6000601f19601f8301169050919050565b613983806200048f6000396000f3fe6080604052600436106101665760003560e01c8063715018a6116100d157806399470ee61161008a578063c2f5168a11610064578063c2f5168a14610503578063c87b56dd1461052e578063e985e9c51461056b578063f2fde38b146105a857610166565b806399470ee614610486578063a22cb465146104b1578063b88d4fde146104da57610166565b8063715018a61461038857806383b5daf71461039f5780638c0b9c54146103ca5780638da5cb5b146104075780639012c4a81461043257806395d89b411461045b57610166565b80633ccfd60b116101235780633ccfd60b1461027e57806342842e0e146102885780635ec163db146102b15780636352211e146102f2578063698d640c1461032f57806370a082311461034b57610166565b806301ffc9a71461016b57806306fdde03146101a8578063081812fc146101d3578063095ea7b3146102105780630ce90ec21461023957806323b872dd14610255575b600080fd5b34801561017757600080fd5b50610192600480360381019061018d9190612741565b6105d1565b60405161019f9190612d69565b60405180910390f35b3480156101b457600080fd5b506101bd6106b3565b6040516101ca9190612d84565b60405180910390f35b3480156101df57600080fd5b506101fa60048036038101906101f591906127d4565b610745565b6040516102079190612ce0565b60405180910390f35b34801561021c57600080fd5b5061023760048036038101906102329190612705565b61078b565b005b610253600480360381019061024e91906127d4565b6108a3565b005b34801561026157600080fd5b5061027c600480360381019061027791906125ff565b6109e8565b005b610286610a48565b005b34801561029457600080fd5b506102af60048036038101906102aa91906125ff565b610aa6565b005b3480156102bd57600080fd5b506102d860048036038101906102d391906127d4565b610ac6565b6040516102e9959493929190612da6565b60405180910390f35b3480156102fe57600080fd5b50610319600480360381019061031491906127d4565b610bae565b6040516103269190612ce0565b60405180910390f35b61034960048036038101906103449190612793565b610c60565b005b34801561035757600080fd5b50610372600480360381019061036d919061259a565b610cb1565b60405161037f9190613000565b60405180910390f35b34801561039457600080fd5b5061039d610d69565b005b3480156103ab57600080fd5b506103b4610d7d565b6040516103c19190612d47565b60405180910390f35b3480156103d657600080fd5b506103f160048036038101906103ec919061259a565b610ebc565b6040516103fe9190612d47565b60405180910390f35b34801561041357600080fd5b5061041c611135565b6040516104299190612ce0565b60405180910390f35b34801561043e57600080fd5b50610459600480360381019061045491906127d4565b61115f565b005b34801561046757600080fd5b50610470611171565b60405161047d9190612d84565b60405180910390f35b34801561049257600080fd5b5061049b611203565b6040516104a89190613000565b60405180910390f35b3480156104bd57600080fd5b506104d860048036038101906104d391906126c9565b61120b565b005b3480156104e657600080fd5b5061050160048036038101906104fc919061264e565b611221565b005b34801561050f57600080fd5b50610518611283565b6040516105259190612ce0565b60405180910390f35b34801561053a57600080fd5b50610555600480360381019061055091906127d4565b61128b565b6040516105629190612d84565b60405180910390f35b34801561057757600080fd5b50610592600480360381019061058d91906125c3565b6112f3565b60405161059f9190612d69565b60405180910390f35b3480156105b457600080fd5b506105cf60048036038101906105ca919061259a565b611387565b005b60007f80ac58cd000000000000000000000000000000000000000000000000000000007bffffffffffffffffffffffffffffffffffffffffffffffffffffffff1916827bffffffffffffffffffffffffffffffffffffffffffffffffffffffff1916148061069c57507f5b5e139f000000000000000000000000000000000000000000000000000000007bffffffffffffffffffffffffffffffffffffffffffffffffffffffff1916827bffffffffffffffffffffffffffffffffffffffffffffffffffffffff1916145b806106ac57506106ab8261140b565b5b9050919050565b6060600080546106c2906132d6565b80601f01602080910402602001604051908101604052809291908181526020018280546106ee906132d6565b801561073b5780601f106107105761010080835404028352916020019161073b565b820191906000526020600020905b81548152906001019060200180831161071e57829003601f168201915b5050505050905090565b600061075082611475565b6004600083815260200190815260200160002060009054906101000a900473ffffffffffffffffffffffffffffffffffffffff169050919050565b600061079682610bae565b90508073ffffffffffffffffffffffffffffffffffffffff168373ffffffffffffffffffffffffffffffffffffffff161415610807576040517f08c379a00000000000000000000000000000000000000000000000000000000081526004016107fe90612f80565b60405180910390fd5b8073ffffffffffffffffffffffffffffffffffffffff166108266114c0565b73ffffffffffffffffffffffffffffffffffffffff16148061085557506108548161084f6114c0565b6112f3565b5b610894576040517f08c379a000000000000000000000000000000000000000000000000000000000815260040161088b90612f00565b60405180910390fd5b61089e83836114c8565b505050565b3373ffffffffffffffffffffffffffffffffffffffff166108c382610bae565b73ffffffffffffffffffffffffffffffffffffffff1614610919576040517f08c379a000000000000000000000000000000000000000000000000000000000815260040161091090612ee0565b60405180910390fd5b60095434101561095e576040517f08c379a000000000000000000000000000000000000000000000000000000000815260040161095590612fa0565b60405180910390fd5b6000600a828154811061099a577f4e487b7100000000000000000000000000000000000000000000000000000000600052603260045260246000fd5b9060005260206000209060040201905080600301600081819054906101000a900460ff16809291906109cb90613382565b91906101000a81548160ff021916908360ff160217905550505050565b6109f96109f36114c0565b82611581565b610a38576040517f08c379a0000000000000000000000000000000000000000000000000000000008152600401610a2f90612fc0565b60405180910390fd5b610a43838383611616565b505050565b610a5061187d565b6000610a5a611135565b90508073ffffffffffffffffffffffffffffffffffffffff166108fc479081150290604051600060405180830381858888f19350505050158015610aa2573d6000803e3d6000fd5b5050565b610ac183838360405180602001604052806000815250611221565b505050565b600a8181548110610ad657600080fd5b9060005260206000209060040201600091509050806000018054610af9906132d6565b80601f0160208091040260200160405190810160405280929190818152602001828054610b25906132d6565b8015610b725780601f10610b4757610100808354040283529160200191610b72565b820191906000526020600020905b815481529060010190602001808311610b5557829003601f168201915b5050505050908060010154908060020154908060030160009054906101000a900460ff16908060030160019054906101000a900460ff16905085565b6000806002600084815260200190815260200160002060009054906101000a900473ffffffffffffffffffffffffffffffffffffffff169050600073ffffffffffffffffffffffffffffffffffffffff168173ffffffffffffffffffffffffffffffffffffffff161415610c57576040517f08c379a0000000000000000000000000000000000000000000000000000000008152600401610c4e90612f60565b60405180910390fd5b80915050919050565b600854341015610ca5576040517f08c379a0000000000000000000000000000000000000000000000000000000008152600401610c9c90612fe0565b60405180910390fd5b610cae816118fb565b50565b60008073ffffffffffffffffffffffffffffffffffffffff168273ffffffffffffffffffffffffffffffffffffffff161415610d22576040517f08c379a0000000000000000000000000000000000000000000000000000000008152600401610d1990612ec0565b60405180910390fd5b600360008373ffffffffffffffffffffffffffffffffffffffff1673ffffffffffffffffffffffffffffffffffffffff168152602001908152602001600020549050919050565b610d7161187d565b610d7b6000611a6e565b565b6060600a805480602002602001604051908101604052809291908181526020016000905b82821015610eb357838290600052602060002090600402016040518060a0016040529081600082018054610dd4906132d6565b80601f0160208091040260200160405190810160405280929190818152602001828054610e00906132d6565b8015610e4d5780601f10610e2257610100808354040283529160200191610e4d565b820191906000526020600020905b815481529060010190602001808311610e3057829003601f168201915b5050505050815260200160018201548152602001600282015481526020016003820160009054906101000a900460ff1660ff1660ff1681526020016003820160019054906101000a900460ff1660ff1660ff168152505081526020019060010190610da1565b50505050905090565b60606000610ec983610cb1565b67ffffffffffffffff811115610f08577f4e487b7100000000000000000000000000000000000000000000000000000000600052604160045260246000fd5b604051908082528060200260200182016040528015610f4157816020015b610f2e612389565b815260200190600190039081610f265790505b5090506000805b600a8054905081101561112a578473ffffffffffffffffffffffffffffffffffffffff16610f7582610bae565b73ffffffffffffffffffffffffffffffffffffffff16141561111757600a8181548110610fcb577f4e487b7100000000000000000000000000000000000000000000000000000000600052603260045260246000fd5b90600052602060002090600402016040518060a0016040529081600082018054610ff4906132d6565b80601f0160208091040260200160405190810160405280929190818152602001828054611020906132d6565b801561106d5780601f106110425761010080835404028352916020019161106d565b820191906000526020600020905b81548152906001019060200180831161105057829003601f168201915b5050505050815260200160018201548152602001600282015481526020016003820160009054906101000a900460ff1660ff1660ff1681526020016003820160019054906101000a900460ff1660ff1660ff16815250508383815181106110fd577f4e487b7100000000000000000000000000000000000000000000000000000000600052603260045260246000fd5b6020026020010181905250818061111390613339565b9250505b808061112290613339565b915050610f48565b508192505050919050565b6000600660009054906101000a900473ffffffffffffffffffffffffffffffffffffffff16905090565b61116761187d565b8060088190555050565b606060018054611180906132d6565b80601f01602080910402602001604051908101604052809291908181526020018280546111ac906132d6565b80156111f95780601f106111ce576101008083540402835291602001916111f9565b820191906000526020600020905b8154815290600101906020018083116111dc57829003601f168201915b5050505050905090565b600047905090565b61121d6112166114c0565b8383611b34565b5050565b61123261122c6114c0565b83611581565b611271576040517f08c379a000000000000000000000000000000000000000000000000000000000815260040161126890612fc0565b60405180910390fd5b61127d84848484611ca1565b50505050565b600030905090565b606061129682611475565b60006112a0611cfd565b905060008151116112c057604051806020016040528060008152506112eb565b806112ca84611d14565b6040516020016112db929190612c90565b6040516020818303038152906040525b915050919050565b6000600560008473ffffffffffffffffffffffffffffffffffffffff1673ffffffffffffffffffffffffffffffffffffffff16815260200190815260200160002060008373ffffffffffffffffffffffffffffffffffffffff1673ffffffffffffffffffffffffffffffffffffffff16815260200190815260200160002060009054906101000a900460ff16905092915050565b61138f61187d565b600073ffffffffffffffffffffffffffffffffffffffff168173ffffffffffffffffffffffffffffffffffffffff1614156113ff576040517f08c379a00000000000000000000000000000000000000000000000000000000081526004016113f690612e20565b60405180910390fd5b61140881611a6e565b50565b60007f01ffc9a7000000000000000000000000000000000000000000000000000000007bffffffffffffffffffffffffffffffffffffffffffffffffffffffff1916827bffffffffffffffffffffffffffffffffffffffffffffffffffffffff1916149050919050565b61147e81611ec1565b6114bd576040517f08c379a00000000000000000000000000000000000000000000000000000000081526004016114b490612f60565b60405180910390fd5b50565b600033905090565b816004600083815260200190815260200160002060006101000a81548173ffffffffffffffffffffffffffffffffffffffff021916908373ffffffffffffffffffffffffffffffffffffffff160217905550808273ffffffffffffffffffffffffffffffffffffffff1661153b83610bae565b73ffffffffffffffffffffffffffffffffffffffff167f8c5be1e5ebec7d5bd14f71427d1e84f3dd0314c0f7b2291e5b200ac8c7c3b92560405160405180910390a45050565b60008061158d83610bae565b90508073ffffffffffffffffffffffffffffffffffffffff168473ffffffffffffffffffffffffffffffffffffffff1614806115cf57506115ce81856112f3565b5b8061160d57508373ffffffffffffffffffffffffffffffffffffffff166115f584610745565b73ffffffffffffffffffffffffffffffffffffffff16145b91505092915050565b8273ffffffffffffffffffffffffffffffffffffffff1661163682610bae565b73ffffffffffffffffffffffffffffffffffffffff161461168c576040517f08c379a000000000000000000000000000000000000000000000000000000000815260040161168390612e40565b60405180910390fd5b600073ffffffffffffffffffffffffffffffffffffffff168273ffffffffffffffffffffffffffffffffffffffff1614156116fc576040517f08c379a00000000000000000000000000000000000000000000000000000000081526004016116f390612e80565b60405180910390fd5b611707838383611f2d565b6117126000826114c8565b6001600360008573ffffffffffffffffffffffffffffffffffffffff1673ffffffffffffffffffffffffffffffffffffffff168152602001908152602001600020600082825461176291906131df565b925050819055506001600360008473ffffffffffffffffffffffffffffffffffffffff1673ffffffffffffffffffffffffffffffffffffffff16815260200190815260200160002060008282546117b99190613158565b92505081905550816002600083815260200190815260200160002060006101000a81548173ffffffffffffffffffffffffffffffffffffffff021916908373ffffffffffffffffffffffffffffffffffffffff160217905550808273ffffffffffffffffffffffffffffffffffffffff168473ffffffffffffffffffffffffffffffffffffffff167fddf252ad1be2c89b69c2b068fc378daa952ba7f163c4a11628f55a4df523b3ef60405160405180910390a4611878838383611f32565b505050565b6118856114c0565b73ffffffffffffffffffffffffffffffffffffffff166118a3611135565b73ffffffffffffffffffffffffffffffffffffffff16146118f9576040517f08c379a00000000000000000000000000000000000000000000000000000000081526004016118f090612f40565b60405180910390fd5b565b60006119076064611f37565b9050600061191b662386f26fc10000611f37565b905060006040518060a001604052808581526020016007548152602001838152602001600160ff1681526020018460ff168152509050600a81908060018154018082558091505060019003906000526020600020906004020160009091909190915060008201518160000190805190602001906119999291906123be565b50602082015181600101556040820151816002015560608201518160030160006101000a81548160ff021916908360ff16021790555060808201518160030160016101000a81548160ff021916908360ff16021790555050506119fe33600754611f7c565b3373ffffffffffffffffffffffffffffffffffffffff167f24d2d558f98bdd9d21339e119fc0b03e213c7d05affd838ac2ee136d90e3bbeb60075484604051611a4892919061301b565b60405180910390a260076000815480929190611a6390613339565b919050555050505050565b6000600660009054906101000a900473ffffffffffffffffffffffffffffffffffffffff16905081600660006101000a81548173ffffffffffffffffffffffffffffffffffffffff021916908373ffffffffffffffffffffffffffffffffffffffff1602179055508173ffffffffffffffffffffffffffffffffffffffff168173ffffffffffffffffffffffffffffffffffffffff167f8be0079c531659141344cd1fd0a4f28419497f9722a3daafe3b4186f6b6457e060405160405180910390a35050565b8173ffffffffffffffffffffffffffffffffffffffff168373ffffffffffffffffffffffffffffffffffffffff161415611ba3576040517f08c379a0000000000000000000000000000000000000000000000000000000008152600401611b9a90612ea0565b60405180910390fd5b80600560008573ffffffffffffffffffffffffffffffffffffffff1673ffffffffffffffffffffffffffffffffffffffff16815260200190815260200160002060008473ffffffffffffffffffffffffffffffffffffffff1673ffffffffffffffffffffffffffffffffffffffff16815260200190815260200160002060006101000a81548160ff0219169083151502179055508173ffffffffffffffffffffffffffffffffffffffff168373ffffffffffffffffffffffffffffffffffffffff167f17307eab39ab6107e8899845ad3d59bd9653f200f220920489ca2b5937696c3183604051611c949190612d69565b60405180910390a3505050565b611cac848484611616565b611cb884848484611f9a565b611cf7576040517f08c379a0000000000000000000000000000000000000000000000000000000008152600401611cee90612e00565b60405180910390fd5b50505050565b606060405180602001604052806000815250905090565b60606000821415611d5c576040518060400160405280600181526020017f30000000000000000000000000000000000000000000000000000000000000008152509050611ebc565b600082905060005b60008214611d8e578080611d7790613339565b915050600a82611d8791906131ae565b9150611d64565b60008167ffffffffffffffff811115611dd0577f4e487b7100000000000000000000000000000000000000000000000000000000600052604160045260246000fd5b6040519080825280601f01601f191660200182016040528015611e025781602001600182028036833780820191505090505b5090505b60008514611eb557600182611e1b91906131df565b9150600a85611e2a91906133da565b6030611e369190613158565b60f81b818381518110611e72577f4e487b7100000000000000000000000000000000000000000000000000000000600052603260045260246000fd5b60200101907effffffffffffffffffffffffffffffffffffffffffffffffffffffffffffff1916908160001a905350600a85611eae91906131ae565b9450611e06565b8093505050505b919050565b60008073ffffffffffffffffffffffffffffffffffffffff166002600084815260200190815260200160002060009054906101000a900473ffffffffffffffffffffffffffffffffffffffff1673ffffffffffffffffffffffffffffffffffffffff1614159050919050565b505050565b505050565b6000804233604051602001611f4d929190612cb4565b6040516020818303038152906040528051906020012060001c90508281611f7491906133da565b915050919050565b611f96828260405180602001604052806000815250612131565b5050565b6000611fbb8473ffffffffffffffffffffffffffffffffffffffff1661218c565b15612124578373ffffffffffffffffffffffffffffffffffffffff1663150b7a02611fe46114c0565b8786866040518563ffffffff1660e01b81526004016120069493929190612cfb565b602060405180830381600087803b15801561202057600080fd5b505af192505050801561205157506040513d601f19601f8201168201806040525081019061204e919061276a565b60015b6120d4573d8060008114612081576040519150601f19603f3d011682016040523d82523d6000602084013e612086565b606091505b506000815114156120cc576040517f08c379a00000000000000000000000000000000000000000000000000000000081526004016120c390612e00565b60405180910390fd5b805181602001fd5b63150b7a0260e01b7bffffffffffffffffffffffffffffffffffffffffffffffffffffffff1916817bffffffffffffffffffffffffffffffffffffffffffffffffffffffff191614915050612129565b600190505b949350505050565b61213b83836121af565b6121486000848484611f9a565b612187576040517f08c379a000000000000000000000000000000000000000000000000000000000815260040161217e90612e00565b60405180910390fd5b505050565b6000808273ffffffffffffffffffffffffffffffffffffffff163b119050919050565b600073ffffffffffffffffffffffffffffffffffffffff168273ffffffffffffffffffffffffffffffffffffffff16141561221f576040517f08c379a000000000000000000000000000000000000000000000000000000000815260040161221690612f20565b60405180910390fd5b61222881611ec1565b15612268576040517f08c379a000000000000000000000000000000000000000000000000000000000815260040161225f90612e60565b60405180910390fd5b61227460008383611f2d565b6001600360008473ffffffffffffffffffffffffffffffffffffffff1673ffffffffffffffffffffffffffffffffffffffff16815260200190815260200160002060008282546122c49190613158565b92505081905550816002600083815260200190815260200160002060006101000a81548173ffffffffffffffffffffffffffffffffffffffff021916908373ffffffffffffffffffffffffffffffffffffffff160217905550808273ffffffffffffffffffffffffffffffffffffffff16600073ffffffffffffffffffffffffffffffffffffffff167fddf252ad1be2c89b69c2b068fc378daa952ba7f163c4a11628f55a4df523b3ef60405160405180910390a461238560008383611f32565b5050565b6040518060a00160405280606081526020016000815260200160008152602001600060ff168152602001600060ff1681525090565b8280546123ca906132d6565b90600052602060002090601f0160209004810192826123ec5760008555612433565b82601f1061240557805160ff1916838001178555612433565b82800160010185558215612433579182015b82811115612432578251825591602001919060010190612417565b5b5090506124409190612444565b5090565b5b8082111561245d576000816000905550600101612445565b5090565b600061247461246f84613069565b613044565b90508281526020810184848401111561248c57600080fd5b612497848285613294565b509392505050565b60006124b26124ad8461309a565b613044565b9050828152602081018484840111156124ca57600080fd5b6124d5848285613294565b509392505050565b6000813590506124ec816138f1565b92915050565b60008135905061250181613908565b92915050565b6000813590506125168161391f565b92915050565b60008151905061252b8161391f565b92915050565b600082601f83011261254257600080fd5b8135612552848260208601612461565b91505092915050565b600082601f83011261256c57600080fd5b813561257c84826020860161249f565b91505092915050565b60008135905061259481613936565b92915050565b6000602082840312156125ac57600080fd5b60006125ba848285016124dd565b91505092915050565b600080604083850312156125d657600080fd5b60006125e4858286016124dd565b92505060206125f5858286016124dd565b9150509250929050565b60008060006060848603121561261457600080fd5b6000612622868287016124dd565b9350506020612633868287016124dd565b925050604061264486828701612585565b9150509250925092565b6000806000806080858703121561266457600080fd5b6000612672878288016124dd565b9450506020612683878288016124dd565b935050604061269487828801612585565b925050606085013567ffffffffffffffff8111156126b157600080fd5b6126bd87828801612531565b91505092959194509250565b600080604083850312156126dc57600080fd5b60006126ea858286016124dd565b92505060206126fb858286016124f2565b9150509250929050565b6000806040838503121561271857600080fd5b6000612726858286016124dd565b925050602061273785828601612585565b9150509250929050565b60006020828403121561275357600080fd5b600061276184828501612507565b91505092915050565b60006020828403121561277c57600080fd5b600061278a8482850161251c565b91505092915050565b6000602082840312156127a557600080fd5b600082013567ffffffffffffffff8111156127bf57600080fd5b6127cb8482850161255b565b91505092915050565b6000602082840312156127e657600080fd5b60006127f484828501612585565b91505092915050565b60006128098383612bc7565b905092915050565b61281a81613213565b82525050565b61283161282c82613213565b6133ac565b82525050565b6000612842826130db565b61284c8185613109565b93508360208202850161285e856130cb565b8060005b8581101561289a578484038952815161287b85826127fd565b9450612886836130fc565b925060208a01995050600181019050612862565b50829750879550505050505092915050565b6128b581613225565b82525050565b60006128c6826130e6565b6128d0818561311a565b93506128e08185602086016132a3565b6128e9816134c7565b840191505092915050565b60006128ff826130f1565b612909818561312b565b93506129198185602086016132a3565b612922816134c7565b840191505092915050565b6000612938826130f1565b612942818561313c565b93506129528185602086016132a3565b61295b816134c7565b840191505092915050565b6000612971826130f1565b61297b818561314d565b935061298b8185602086016132a3565b80840191505092915050565b60006129a460328361313c565b91506129af826134e5565b604082019050919050565b60006129c760268361313c565b91506129d282613534565b604082019050919050565b60006129ea60258361313c565b91506129f582613583565b604082019050919050565b6000612a0d601c8361313c565b9150612a18826135d2565b602082019050919050565b6000612a3060248361313c565b9150612a3b826135fb565b604082019050919050565b6000612a5360198361313c565b9150612a5e8261364a565b602082019050919050565b6000612a7660298361313c565b9150612a8182613673565b604082019050919050565b6000612a9960218361313c565b9150612aa4826136c2565b604082019050919050565b6000612abc603e8361313c565b9150612ac782613711565b604082019050919050565b6000612adf60208361313c565b9150612aea82613760565b602082019050919050565b6000612b0260208361313c565b9150612b0d82613789565b602082019050919050565b6000612b2560188361313c565b9150612b30826137b2565b602082019050919050565b6000612b4860218361313c565b9150612b53826137db565b604082019050919050565b6000612b6b602f8361313c565b9150612b768261382a565b604082019050919050565b6000612b8e602e8361313c565b9150612b9982613879565b604082019050919050565b6000612bb1601b8361313c565b9150612bbc826138c8565b602082019050919050565b600060a0830160008301518482036000860152612be482826128f4565b9150506020830151612bf96020860182612c3d565b506040830151612c0c6040860182612c3d565b506060830151612c1f6060860182612c72565b506080830151612c326080860182612c72565b508091505092915050565b612c468161327d565b82525050565b612c558161327d565b82525050565b612c6c612c678261327d565b6133d0565b82525050565b612c7b81613287565b82525050565b612c8a81613287565b82525050565b6000612c9c8285612966565b9150612ca88284612966565b91508190509392505050565b6000612cc08285612c5b565b602082019150612cd08284612820565b6014820191508190509392505050565b6000602082019050612cf56000830184612811565b92915050565b6000608082019050612d106000830187612811565b612d1d6020830186612811565b612d2a6040830185612c4c565b8181036060830152612d3c81846128bb565b905095945050505050565b60006020820190508181036000830152612d618184612837565b905092915050565b6000602082019050612d7e60008301846128ac565b92915050565b60006020820190508181036000830152612d9e818461292d565b905092915050565b600060a0820190508181036000830152612dc0818861292d565b9050612dcf6020830187612c4c565b612ddc6040830186612c4c565b612de96060830185612c81565b612df66080830184612c81565b9695505050505050565b60006020820190508181036000830152612e1981612997565b9050919050565b60006020820190508181036000830152612e39816129ba565b9050919050565b60006020820190508181036000830152612e59816129dd565b9050919050565b60006020820190508181036000830152612e7981612a00565b9050919050565b60006020820190508181036000830152612e9981612a23565b9050919050565b60006020820190508181036000830152612eb981612a46565b9050919050565b60006020820190508181036000830152612ed981612a69565b9050919050565b60006020820190508181036000830152612ef981612a8c565b9050919050565b60006020820190508181036000830152612f1981612aaf565b9050919050565b60006020820190508181036000830152612f3981612ad2565b9050919050565b60006020820190508181036000830152612f5981612af5565b9050919050565b60006020820190508181036000830152612f7981612b18565b9050919050565b60006020820190508181036000830152612f9981612b3b565b9050919050565b60006020820190508181036000830152612fb981612b5e565b9050919050565b60006020820190508181036000830152612fd981612b81565b9050919050565b60006020820190508181036000830152612ff981612ba4565b9050919050565b60006020820190506130156000830184612c4c565b92915050565b60006040820190506130306000830185612c4c565b61303d6020830184612c4c565b9392505050565b600061304e61305f565b905061305a8282613308565b919050565b6000604051905090565b600067ffffffffffffffff82111561308457613083613498565b5b61308d826134c7565b9050602081019050919050565b600067ffffffffffffffff8211156130b5576130b4613498565b5b6130be826134c7565b9050602081019050919050565b6000819050602082019050919050565b600081519050919050565b600081519050919050565b600081519050919050565b6000602082019050919050565b600082825260208201905092915050565b600082825260208201905092915050565b600082825260208201905092915050565b600082825260208201905092915050565b600081905092915050565b60006131638261327d565b915061316e8361327d565b9250827fffffffffffffffffffffffffffffffffffffffffffffffffffffffffffffffff038211156131a3576131a261340b565b5b828201905092915050565b60006131b98261327d565b91506131c48361327d565b9250826131d4576131d361343a565b5b828204905092915050565b60006131ea8261327d565b91506131f58361327d565b9250828210156132085761320761340b565b5b828203905092915050565b600061321e8261325d565b9050919050565b60008115159050919050565b60007fffffffff0000000000000000000000000000000000000000000000000000000082169050919050565b600073ffffffffffffffffffffffffffffffffffffffff82169050919050565b6000819050919050565b600060ff82169050919050565b82818337600083830152505050565b60005b838110156132c15780820151818401526020810190506132a6565b838111156132d0576000848401525b50505050565b600060028204905060018216806132ee57607f821691505b6020821081141561330257613301613469565b5b50919050565b613311826134c7565b810181811067ffffffffffffffff821117156133305761332f613498565b5b80604052505050565b60006133448261327d565b91507fffffffffffffffffffffffffffffffffffffffffffffffffffffffffffffffff8214156133775761337661340b565b5b600182019050919050565b600061338d82613287565b915060ff8214156133a1576133a061340b565b5b600182019050919050565b60006133b7826133be565b9050919050565b60006133c9826134d8565b9050919050565b6000819050919050565b60006133e58261327d565b91506133f08361327d565b925082613400576133ff61343a565b5b828206905092915050565b7f4e487b7100000000000000000000000000000000000000000000000000000000600052601160045260246000fd5b7f4e487b7100000000000000000000000000000000000000000000000000000000600052601260045260246000fd5b7f4e487b7100000000000000000000000000000000000000000000000000000000600052602260045260246000fd5b7f4e487b7100000000000000000000000000000000000000000000000000000000600052604160045260246000fd5b6000601f19601f8301169050919050565b60008160601b9050919050565b7f4552433732313a207472616e7366657220746f206e6f6e20455243373231526560008201527f63656976657220696d706c656d656e7465720000000000000000000000000000602082015250565b7f4f776e61626c653a206e6577206f776e657220697320746865207a65726f206160008201527f6464726573730000000000000000000000000000000000000000000000000000602082015250565b7f4552433732313a207472616e736665722066726f6d20696e636f72726563742060008201527f6f776e6572000000000000000000000000000000000000000000000000000000602082015250565b7f4552433732313a20746f6b656e20616c7265616479206d696e74656400000000600082015250565b7f4552433732313a207472616e7366657220746f20746865207a65726f2061646460008201527f7265737300000000000000000000000000000000000000000000000000000000602082015250565b7f4552433732313a20617070726f766520746f2063616c6c657200000000000000600082015250565b7f4552433732313a2061646472657373207a65726f206973206e6f74206120766160008201527f6c6964206f776e65720000000000000000000000000000000000000000000000602082015250565b7f5573746564206e6f20657320656c206475656e696f2064652065737465204e4660008201527f5400000000000000000000000000000000000000000000000000000000000000602082015250565b7f4552433732313a20617070726f76652063616c6c6572206973206e6f7420746f60008201527f6b656e206f776e6572206e6f7220617070726f76656420666f7220616c6c0000602082015250565b7f4552433732313a206d696e7420746f20746865207a65726f2061646472657373600082015250565b7f4f776e61626c653a2063616c6c6572206973206e6f7420746865206f776e6572600082015250565b7f4552433732313a20696e76616c696420746f6b656e2049440000000000000000600082015250565b7f4552433732313a20617070726f76616c20746f2063757272656e74206f776e6560008201527f7200000000000000000000000000000000000000000000000000000000000000602082015250565b7f4e6f207469656e6520737566696369656e74657320666f6e646f73207061726160008201527f207375626972206465206e6976656c0000000000000000000000000000000000602082015250565b7f4552433732313a2063616c6c6572206973206e6f7420746f6b656e206f776e6560008201527f72206e6f7220617070726f766564000000000000000000000000000000000000602082015250565b7f4e6f207469656e6520737566696369656e74657320666f6e646f730000000000600082015250565b6138fa81613213565b811461390557600080fd5b50565b61391181613225565b811461391c57600080fd5b50565b61392881613231565b811461393357600080fd5b50565b61393f8161327d565b811461394a57600080fd5b5056fea2646970667358221220d9ef904f38763eceb95b303cc55ce9b67dd70f59c36734962a1ec33d717eb7f964736f6c63430008010033",
  "immutableReferences": {},
  "source": "/// SPDX-License-Identifier: MIT\r\npragma solidity ^0.8.0;\r\n\r\n//import \"./token/ERC721/ERC721.sol\";\r\n//import \"./access/Ownable.sol\";\r\n\r\nimport \"@openzeppelin/contracts/token/ERC721/ERC721.sol\";\r\nimport \"@openzeppelin/contracts/access/Ownable.sol\";\r\n\r\ncontract LipToken is ERC721, Ownable {\r\n    // Constructor de mi Smart Contract\r\n    constructor(string memory _name, string memory _symbol) \r\n           ERC721(_name, _symbol) {        \r\n    }\r\n\r\n    // =====================================================\r\n    // Declaraciones iniciales\r\n\r\n    // Contador de tokens NFT\r\n    uint256 counter;\r\n    // fijacin en el precio de los tokens NFT\r\n    uint256 fee = 1 ether;\r\n    uint256 feeLevel = 0.05 ether;\r\n    // Estructura de datos con las propiedades del lip (labio)\r\n    struct Lip {\r\n        string name;\r\n        uint256 id;\r\n        uint256 dna;\r\n        uint8 level;\r\n        // uint8 price;  // para futuros automatizaciones de precios\r\n        uint8 rarity;\r\n    }\r\n\r\n    // Estructura de almacenamiento\r\n    Lip[] public lips;\r\n    // Declaracion de un evento\r\n    event NewLip(address indexed owner, uint256 id, uint256 dna);\r\n\r\n    // ===============================================================\r\n    // funciones de ayuda\r\n\r\n    // Asignacin de un nmero aleatorio\r\n    function _createRandomNum(uint256 _mod) internal view returns (uint256) {\r\n        uint256 randomNum = uint256(keccak256(abi.encodePacked(block.timestamp, msg.sender)));\r\n        return randomNum % _mod;\r\n    }\r\n\r\n    // Actualizacin del precio del Token NFT\r\n    function updateFee(uint256 _fee) external onlyOwner {\r\n        fee = _fee;\r\n    }\r\n\r\n    // Extraccin de los ethers del Smart Contract hacia el Owner\r\n    function withdraw() external payable onlyOwner {\r\n        address payable _owner = payable(owner());\r\n        _owner.transfer(address(this).balance);\r\n    }\r\n\r\n    // Creacin del Token NFT (lip/labio)\r\n    function _createLip(string memory _name) internal {\r\n       uint8 randRarity = uint8(_createRandomNum(100));\r\n       uint randDna = _createRandomNum(10**16);\r\n       Lip memory newLip = Lip(_name, counter, randDna, 1, randRarity);\r\n       lips.push(newLip);\r\n       _safeMint(msg.sender, counter);\r\n       emit NewLip(msg.sender, counter, randDna);\r\n       counter++;\r\n    }\r\n\r\n    //==================================================================\r\n    // Creacin de un labio aleatorio\r\n    function createRandomLip(string memory _name) public payable {\r\n        require(msg.value >= fee, \"No tiene suficientes fondos\");\r\n        _createLip(_name);\r\n    }\r\n\r\n    // Obtencin de todos los labios creados\r\n    function getLips() public view returns (Lip[] memory) {\r\n        return lips;\r\n    }\r\n\r\n    // Visualizar el balance del smart contract\r\n    function moneySmartContract() public view returns (uint256) {\r\n        return address(this).balance;\r\n    }\r\n\r\n    // Visualizar la direccin del Smart Contract\r\n    function addressSmartContract() public view returns (address) {\r\n        return address(this);\r\n    }\r\n\r\n    // Obtencin de los tokens NFT usuario\r\n    function getOwnerLips(address _owner) public view returns (Lip[] memory) {\r\n        Lip [] memory result = new Lip[] (balanceOf(_owner));\r\n        uint256 _counter = 0;\r\n        for (uint256 i = 0; i < lips.length; i++) {\r\n            if (ownerOf(i) == _owner) {\r\n                result[_counter] = lips[i];\r\n                _counter++;\r\n            }\r\n        }\r\n        return result;\r\n    }\r\n\r\n    function levelUp(uint256 _lipId) public payable {        \r\n        require(ownerOf(_lipId) == msg.sender, \"Usted no es el duenio de este NFT\") ;\r\n        require(msg.value >= feeLevel, \"No tiene suficientes fondos para subir de nivel\");\r\n        Lip storage lip = lips[_lipId];\r\n        lip.level++;        \r\n    }\r\n\r\n\r\n}",
  "sourcePath": "C:\\Users\\Antonio\\Documents\\cursos_udemy\\Blockchain\\Curso de desarrollo de Videojuegos NFT de la A a la Z\\secciones\\seccion19-Creando un videojuego\\angular\\Dapp-lips\\Blockchain\\contracts\\LipToken.sol",
  "compiler": {
    "name": "solc",
    "version": "0.8.1+commit.df193b15.Emscripten.clang"
  },
  "schemaVersion": "3.4.7",
  "updatedAt": "2022-09-03T17:47:45.220Z",
  "networkType": "ethereum",
  "devdoc": {
    "kind": "dev",
    "methods": {
      "approve(address,uint256)": {
        "details": "See {IERC721-approve}."
      },
      "balanceOf(address)": {
        "details": "See {IERC721-balanceOf}."
      },
      "getApproved(uint256)": {
        "details": "See {IERC721-getApproved}."
      },
      "isApprovedForAll(address,address)": {
        "details": "See {IERC721-isApprovedForAll}."
      },
      "name()": {
        "details": "See {IERC721Metadata-name}."
      },
      "owner()": {
        "details": "Returns the address of the current owner."
      },
      "ownerOf(uint256)": {
        "details": "See {IERC721-ownerOf}."
      },
      "renounceOwnership()": {
        "details": "Leaves the contract without owner. It will not be possible to call `onlyOwner` functions anymore. Can only be called by the current owner. NOTE: Renouncing ownership will leave the contract without an owner, thereby removing any functionality that is only available to the owner."
      },
      "safeTransferFrom(address,address,uint256)": {
        "details": "See {IERC721-safeTransferFrom}."
      },
      "safeTransferFrom(address,address,uint256,bytes)": {
        "details": "See {IERC721-safeTransferFrom}."
      },
      "setApprovalForAll(address,bool)": {
        "details": "See {IERC721-setApprovalForAll}."
      },
      "supportsInterface(bytes4)": {
        "details": "See {IERC165-supportsInterface}."
      },
      "symbol()": {
        "details": "See {IERC721Metadata-symbol}."
      },
      "tokenURI(uint256)": {
        "details": "See {IERC721Metadata-tokenURI}."
      },
      "transferFrom(address,address,uint256)": {
        "details": "See {IERC721-transferFrom}."
      },
      "transferOwnership(address)": {
        "details": "Transfers ownership of the contract to a new account (`newOwner`). Can only be called by the current owner."
      }
    },
    "version": 1
  },
  "userdoc": {
    "kind": "user",
    "methods": {},
    "version": 1
  }
}